{
  "contractName": "WorldHeritageCore",
  "abi": [
    {
      "constant": true,
      "inputs": [],
      "name": "promoCreatedCount",
      "outputs": [
        {
          "name": "",
          "type": "uint16"
        }
      ],
      "payable": false,
      "stateMutability": "view",
      "type": "function"
    },
    {
      "constant": true,
      "inputs": [],
      "name": "name",
      "outputs": [
        {
          "name": "_name",
          "type": "string"
        }
      ],
      "payable": false,
      "stateMutability": "view",
      "type": "function"
    },
    {
      "constant": false,
      "inputs": [
        {
          "name": "_to",
          "type": "address"
        },
        {
          "name": "_tokenId",
          "type": "uint256"
        }
      ],
      "name": "approve",
      "outputs": [],
      "payable": false,
      "stateMutability": "nonpayable",
      "type": "function"
    },
    {
      "constant": true,
      "inputs": [],
      "name": "implementsERC721",
      "outputs": [
        {
          "name": "",
          "type": "bool"
        }
      ],
      "payable": false,
      "stateMutability": "pure",
      "type": "function"
    },
    {
      "constant": true,
      "inputs": [],
      "name": "totalSupply",
      "outputs": [
        {
          "name": "total",
          "type": "uint256"
        }
      ],
      "payable": false,
      "stateMutability": "view",
      "type": "function"
    },
    {
      "constant": false,
      "inputs": [
        {
          "name": "_price",
          "type": "uint256"
        }
      ],
      "name": "setCrowdFundingLimit",
      "outputs": [
        {
          "name": "",
          "type": "uint256"
        }
      ],
      "payable": false,
      "stateMutability": "nonpayable",
      "type": "function"
    },
    {
      "constant": false,
      "inputs": [
        {
          "name": "_from",
          "type": "address"
        },
        {
          "name": "_to",
          "type": "address"
        },
        {
          "name": "_tokenId",
          "type": "uint256"
        }
      ],
      "name": "transferFrom",
      "outputs": [],
      "payable": false,
      "stateMutability": "nonpayable",
      "type": "function"
    },
    {
      "constant": false,
      "inputs": [
        {
          "name": "_newCEO",
          "type": "address"
        }
      ],
      "name": "setCEO",
      "outputs": [],
      "payable": false,
      "stateMutability": "nonpayable",
      "type": "function"
    },
    {
      "constant": false,
      "inputs": [
        {
          "name": "_newCOO",
          "type": "address"
        }
      ],
      "name": "setCOO",
      "outputs": [],
      "payable": false,
      "stateMutability": "nonpayable",
      "type": "function"
    },
    {
      "constant": false,
      "inputs": [
        {
          "name": "_address",
          "type": "address"
        }
      ],
      "name": "setCrowdFundingCore",
      "outputs": [],
      "payable": false,
      "stateMutability": "nonpayable",
      "type": "function"
    },
    {
      "constant": false,
      "inputs": [],
      "name": "pauseGame",
      "outputs": [],
      "payable": false,
      "stateMutability": "nonpayable",
      "type": "function"
    },
    {
      "constant": true,
      "inputs": [],
      "name": "crowdfunding",
      "outputs": [
        {
          "name": "",
          "type": "address"
        }
      ],
      "payable": false,
      "stateMutability": "view",
      "type": "function"
    },
    {
      "constant": true,
      "inputs": [
        {
          "name": "",
          "type": "uint256"
        }
      ],
      "name": "IndexToApproved",
      "outputs": [
        {
          "name": "",
          "type": "address"
        }
      ],
      "payable": false,
      "stateMutability": "view",
      "type": "function"
    },
    {
      "constant": true,
      "inputs": [
        {
          "name": "_tokenId",
          "type": "uint256"
        }
      ],
      "name": "ownerOf",
      "outputs": [
        {
          "name": "_owner",
          "type": "address"
        }
      ],
      "payable": false,
      "stateMutability": "view",
      "type": "function"
    },
    {
      "constant": true,
      "inputs": [
        {
          "name": "_owner",
          "type": "address"
        }
      ],
      "name": "balanceOf",
      "outputs": [
        {
          "name": "_balance",
          "type": "uint256"
        }
      ],
      "payable": false,
      "stateMutability": "view",
      "type": "function"
    },
    {
      "constant": true,
      "inputs": [
        {
          "name": "",
          "type": "uint256"
        }
      ],
      "name": "IndexToOwner",
      "outputs": [
        {
          "name": "",
          "type": "address"
        }
      ],
      "payable": false,
      "stateMutability": "view",
      "type": "function"
    },
    {
      "constant": false,
      "inputs": [],
      "name": "initialWorldHeritageInfo",
      "outputs": [],
      "payable": false,
      "stateMutability": "nonpayable",
      "type": "function"
    },
    {
      "constant": true,
      "inputs": [],
      "name": "GetIsPauded",
      "outputs": [
        {
          "name": "",
          "type": "bool"
        }
      ],
      "payable": false,
      "stateMutability": "view",
      "type": "function"
    },
    {
      "constant": true,
      "inputs": [
        {
          "name": "_owner",
          "type": "address"
        }
      ],
      "name": "tokensOfOwner",
      "outputs": [
        {
          "name": "ownerTokens",
          "type": "uint256[]"
        }
      ],
      "payable": false,
      "stateMutability": "view",
      "type": "function"
    },
    {
      "constant": true,
      "inputs": [],
      "name": "owner",
      "outputs": [
        {
          "name": "",
          "type": "address"
        }
      ],
      "payable": false,
      "stateMutability": "view",
      "type": "function"
    },
    {
      "constant": true,
      "inputs": [],
      "name": "symbol",
      "outputs": [
        {
          "name": "_symbol",
          "type": "string"
        }
      ],
      "payable": false,
      "stateMutability": "view",
      "type": "function"
    },
    {
      "constant": true,
      "inputs": [
        {
          "name": "",
          "type": "uint256"
        }
      ],
      "name": "worldheritages",
      "outputs": [
        {
          "name": "name",
          "type": "string"
        }
      ],
      "payable": false,
      "stateMutability": "view",
      "type": "function"
    },
    {
      "constant": true,
      "inputs": [],
      "name": "NAME",
      "outputs": [
        {
          "name": "",
          "type": "string"
        }
      ],
      "payable": false,
      "stateMutability": "view",
      "type": "function"
    },
    {
      "constant": false,
      "inputs": [
        {
          "name": "_to",
          "type": "address"
        },
        {
          "name": "_tokenId",
          "type": "uint256"
        }
      ],
      "name": "transfer",
      "outputs": [],
      "payable": false,
      "stateMutability": "nonpayable",
      "type": "function"
    },
    {
      "constant": true,
      "inputs": [],
      "name": "CrowdFundingLimit",
      "outputs": [
        {
          "name": "",
          "type": "uint256"
        }
      ],
      "payable": false,
      "stateMutability": "view",
      "type": "function"
    },
    {
      "constant": false,
      "inputs": [
        {
          "name": "_tokenId",
          "type": "uint256"
        }
      ],
      "name": "takeOwnership",
      "outputs": [],
      "payable": false,
      "stateMutability": "nonpayable",
      "type": "function"
    },
    {
      "constant": true,
      "inputs": [
        {
          "name": "",
          "type": "uint256"
        }
      ],
      "name": "IndexToRemainPrice",
      "outputs": [
        {
          "name": "",
          "type": "uint256"
        }
      ],
      "payable": false,
      "stateMutability": "view",
      "type": "function"
    },
    {
      "constant": false,
      "inputs": [
        {
          "name": "_tokenId",
          "type": "uint256"
        },
        {
          "name": "_price",
          "type": "uint256"
        }
      ],
      "name": "groupbuy",
      "outputs": [],
      "payable": true,
      "stateMutability": "payable",
      "type": "function"
    },
    {
      "constant": false,
      "inputs": [
        {
          "name": "_name",
          "type": "string"
        }
      ],
      "name": "createWorldHeritage",
      "outputs": [],
      "payable": false,
      "stateMutability": "nonpayable",
      "type": "function"
    },
    {
      "constant": false,
      "inputs": [
        {
          "name": "_name",
          "type": "string"
        },
        {
          "name": "_address",
          "type": "address"
        },
        {
          "name": "_price",
          "type": "uint256"
        }
      ],
      "name": "createPromos",
      "outputs": [
        {
          "name": "",
          "type": "uint256"
        }
      ],
      "payable": false,
      "stateMutability": "nonpayable",
      "type": "function"
    },
    {
      "constant": false,
      "inputs": [
        {
          "name": "_tokenId",
          "type": "uint256"
        }
      ],
      "name": "purchase",
      "outputs": [],
      "payable": true,
      "stateMutability": "payable",
      "type": "function"
    },
    {
      "constant": false,
      "inputs": [
        {
          "name": "newOwner",
          "type": "address"
        }
      ],
      "name": "transferOwnership",
      "outputs": [],
      "payable": false,
      "stateMutability": "nonpayable",
      "type": "function"
    },
    {
      "constant": false,
      "inputs": [],
      "name": "unPauseGame",
      "outputs": [],
      "payable": false,
      "stateMutability": "nonpayable",
      "type": "function"
    },
    {
      "constant": true,
      "inputs": [],
      "name": "SYMBOL",
      "outputs": [
        {
          "name": "",
          "type": "string"
        }
      ],
      "payable": false,
      "stateMutability": "view",
      "type": "function"
    },
    {
      "constant": true,
      "inputs": [
        {
          "name": "_tokenId",
          "type": "uint256"
        }
      ],
      "name": "getWorldHeritage",
      "outputs": [
        {
          "name": "tokenName",
          "type": "string"
        },
        {
          "name": "sellingPrice",
          "type": "uint256"
        },
        {
          "name": "owner",
          "type": "address"
        },
        {
          "name": "nextPrice",
          "type": "uint256"
        },
        {
          "name": "remainPrice",
          "type": "uint256"
        }
      ],
      "payable": false,
      "stateMutability": "view",
      "type": "function"
    },
    {
      "inputs": [],
      "payable": false,
      "stateMutability": "nonpayable",
      "type": "constructor"
    },
    {
      "payable": true,
      "stateMutability": "payable",
      "type": "fallback"
    },
    {
      "anonymous": false,
      "inputs": [
        {
          "indexed": false,
          "name": "tokenId",
          "type": "uint256"
        },
        {
          "indexed": false,
          "name": "oldPrice",
          "type": "uint256"
        },
        {
          "indexed": false,
          "name": "newPrice",
          "type": "uint256"
        },
        {
          "indexed": false,
          "name": "prevOwner",
          "type": "address"
        },
        {
          "indexed": false,
          "name": "winner",
          "type": "address"
        },
        {
          "indexed": false,
          "name": "name",
          "type": "string"
        }
      ],
      "name": "BuyToken",
      "type": "event"
    },
    {
      "anonymous": false,
      "inputs": [
        {
          "indexed": true,
          "name": "from",
          "type": "address"
        },
        {
          "indexed": true,
          "name": "to",
          "type": "address"
        },
        {
          "indexed": false,
          "name": "tokenId",
          "type": "uint256"
        }
      ],
      "name": "Transfer",
      "type": "event"
    },
    {
      "anonymous": false,
      "inputs": [
        {
          "indexed": true,
          "name": "owner",
          "type": "address"
        },
        {
          "indexed": true,
          "name": "approved",
          "type": "address"
        },
        {
          "indexed": false,
          "name": "tokenId",
          "type": "uint256"
        }
      ],
      "name": "Approval",
      "type": "event"
    },
    {
      "anonymous": false,
      "inputs": [
        {
          "indexed": false,
          "name": "tokenId",
          "type": "uint256"
        },
        {
          "indexed": false,
          "name": "name",
          "type": "string"
        },
        {
          "indexed": false,
          "name": "_address",
          "type": "address"
        }
      ],
      "name": "NewWorldHeritage",
      "type": "event"
    },
    {
      "anonymous": false,
      "inputs": [
        {
          "indexed": true,
          "name": "previousOwner",
          "type": "address"
        },
        {
          "indexed": true,
          "name": "newOwner",
          "type": "address"
        }
      ],
      "name": "OwnershipTransferred",
      "type": "event"
    }
  ],
  "bytecode": "0x6060604052662386f26fc10000600b556706f05a70ff0cf000600e55671bc16c7e7a22f000600f556745639099704ef000601055678ac7221bb542f000601155341561004a57600080fd5b336000806101000a81548173ffffffffffffffffffffffffffffffffffffffff021916908373ffffffffffffffffffffffffffffffffffffffff16021790555033600160006101000a81548173ffffffffffffffffffffffffffffffffffffffff021916908373ffffffffffffffffffffffffffffffffffffffff16021790555033600260006101000a81548173ffffffffffffffffffffffffffffffffffffffff021916908373ffffffffffffffffffffffffffffffffffffffff160217905550612e5a8061011b6000396000f3006060604052600436106101b7576000357c0100000000000000000000000000000000000000000000000000000000900463ffffffff16806305e45546146101b957806306fdde03146101ea578063095ea7b3146102785780631051db34146102ba57806318160ddd146102e7578063208490d71461031057806323b872dd1461034757806327d7874c146103a85780632ba73c15146103e15780633b02fabe1461041a578063499831f21461045357806356885cd8146104685780635a688ffa146104bd5780636352211e1461052057806370a082311461058357806372f897a8146105d057806374ce9d5014610633578063820c59bb146106485780638462151c146106755780638da5cb5b1461070357806395d89b41146107585780639d173085146107e6578063a3f4df7e1461089f578063a9059cbb1461092d578063ad0544bd1461096f578063b2e6ceeb14610998578063b593bdfc146109bb578063b996a54c146109f2578063e1b65d2814610a13578063eb17e7a414610a70578063efef39a114610b09578063f2fde38b14610b21578063f42b1ae014610b5a578063f76f8d7814610b6f578063f7c8993814610bfd575b005b34156101c457600080fd5b6101cc610ce1565b604051808261ffff1661ffff16815260200191505060405180910390f35b34156101f557600080fd5b6101fd610cf5565b6040518080602001828103825283818151815260200191508051906020019080838360005b8381101561023d578082015181840152602081019050610222565b50505050905090810190601f16801561026a5780820380516001836020036101000a031916815260200191505b509250505060405180910390f35b341561028357600080fd5b6102b8600480803573ffffffffffffffffffffffffffffffffffffffff16906020019091908035906020019091905050610d38565b005b34156102c557600080fd5b6102cd610e62565b604051808215151515815260200191505060405180910390f35b34156102f257600080fd5b6102fa610e6b565b6040518082815260200191505060405180910390f35b341561031b57600080fd5b6103316004808035906020019091905050610e78565b6040518082815260200191505060405180910390f35b341561035257600080fd5b6103a6600480803573ffffffffffffffffffffffffffffffffffffffff1690602001909190803573ffffffffffffffffffffffffffffffffffffffff16906020019091908035906020019091905050610f3f565b005b34156103b357600080fd5b6103df600480803573ffffffffffffffffffffffffffffffffffffffff16906020019091905050610fb5565b005b34156103ec57600080fd5b610418600480803573ffffffffffffffffffffffffffffffffffffffff16906020019091905050611091565b005b341561042557600080fd5b610451600480803573ffffffffffffffffffffffffffffffffffffffff1690602001909190505061116d565b005b341561045e57600080fd5b610466611213565b005b341561047357600080fd5b61047b61128c565b604051808273ffffffffffffffffffffffffffffffffffffffff1673ffffffffffffffffffffffffffffffffffffffff16815260200191505060405180910390f35b34156104c857600080fd5b6104de60048080359060200190919050506112b2565b604051808273ffffffffffffffffffffffffffffffffffffffff1673ffffffffffffffffffffffffffffffffffffffff16815260200191505060405180910390f35b341561052b57600080fd5b61054160048080359060200190919050506112e5565b604051808273ffffffffffffffffffffffffffffffffffffffff1673ffffffffffffffffffffffffffffffffffffffff16815260200191505060405180910390f35b341561058e57600080fd5b6105ba600480803573ffffffffffffffffffffffffffffffffffffffff16906020019091905050611322565b6040518082815260200191505060405180910390f35b34156105db57600080fd5b6105f1600480803590602001909190505061136b565b604051808273ffffffffffffffffffffffffffffffffffffffff1673ffffffffffffffffffffffffffffffffffffffff16815260200191505060405180910390f35b341561063e57600080fd5b61064661139e565b005b341561065357600080fd5b61065b611805565b604051808215151515815260200191505060405180910390f35b341561068057600080fd5b6106ac600480803573ffffffffffffffffffffffffffffffffffffffff1690602001909190505061181c565b6040518080602001828103825283818151815260200191508051906020019060200280838360005b838110156106ef5780820151818401526020810190506106d4565b505050509050019250505060405180910390f35b341561070e57600080fd5b610716611953565b604051808273ffffffffffffffffffffffffffffffffffffffff1673ffffffffffffffffffffffffffffffffffffffff16815260200191505060405180910390f35b341561076357600080fd5b61076b611978565b6040518080602001828103825283818151815260200191508051906020019080838360005b838110156107ab578082015181840152602081019050610790565b50505050905090810190601f1680156107d85780820380516001836020036101000a031916815260200191505b509250505060405180910390f35b34156107f157600080fd5b61080760048080359060200190919050506119bb565b60405180806020018281038252838181546001816001161561010002031660029004815260200191508054600181600116156101000203166002900480156108905780601f1061086557610100808354040283529160200191610890565b820191906000526020600020905b81548152906001019060200180831161087357829003601f168201915b50509250505060405180910390f35b34156108aa57600080fd5b6108b26119e4565b6040518080602001828103825283818151815260200191508051906020019080838360005b838110156108f25780820151818401526020810190506108d7565b50505050905090810190601f16801561091f5780820380516001836020036101000a031916815260200191505b509250505060405180910390f35b341561093857600080fd5b61096d600480803573ffffffffffffffffffffffffffffffffffffffff16906020019091908035906020019091905050611a1d565b005b341561097a57600080fd5b610982611a9b565b6040518082815260200191505060405180910390f35b34156109a357600080fd5b6109b96004808035906020019091905050611aa1565b005b34156109c657600080fd5b6109dc6004808035906020019091905050611b2a565b6040518082815260200191505060405180910390f35b610a116004808035906020019091908035906020019091905050611b42565b005b3415610a1e57600080fd5b610a6e600480803590602001908201803590602001908080601f01602080910402602001604051908101604052809392919081815260200183838082843782019150505050505091905050611bf2565b005b3415610a7b57600080fd5b610af3600480803590602001908201803590602001908080601f0160208091040260200160405190810160405280939291908181526020018383808284378201915050505050509190803573ffffffffffffffffffffffffffffffffffffffff16906020019091908035906020019091905050611d12565b6040518082815260200191505060405180910390f35b610b1f6004808035906020019091905050611e60565b005b3415610b2c57600080fd5b610b58600480803573ffffffffffffffffffffffffffffffffffffffff16906020019091905050612234565b005b3415610b6557600080fd5b610b6d612389565b005b3415610b7a57600080fd5b610b82612402565b6040518080602001828103825283818151815260200191508051906020019080838360005b83811015610bc2578082015181840152602081019050610ba7565b50505050905090810190601f168015610bef5780820380516001836020036101000a031916815260200191505b509250505060405180910390f35b3415610c0857600080fd5b610c1e600480803590602001909190505061243b565b60405180806020018681526020018573ffffffffffffffffffffffffffffffffffffffff1673ffffffffffffffffffffffffffffffffffffffff168152602001848152602001838152602001828103825287818151815260200191508051906020019080838360005b83811015610ca2578082015181840152602081019050610c87565b50505050905090810190601f168015610ccf5780820380516001836020036101000a031916815260200191505b50965050505050505060405180910390f35b600c60009054906101000a900461ffff1681565b610cfd612c90565b6040805190810160405280601381526020017f43727970746f576f726c64486572697461676500000000000000000000000000815250905090565b806005600082815260200190815260200160002060009054906101000a900473ffffffffffffffffffffffffffffffffffffffff1673ffffffffffffffffffffffffffffffffffffffff163373ffffffffffffffffffffffffffffffffffffffff16141515610da657600080fd5b826008600084815260200190815260200160002060006101000a81548173ffffffffffffffffffffffffffffffffffffffff021916908373ffffffffffffffffffffffffffffffffffffffff1602179055508273ffffffffffffffffffffffffffffffffffffffff163373ffffffffffffffffffffffffffffffffffffffff167f8c5be1e5ebec7d5bd14f71427d1e84f3dd0314c0f7b2291e5b200ac8c7c3b925846040518082815260200191505060405180910390a3505050565b60006001905090565b6000600480549050905090565b6000600160009054906101000a900473ffffffffffffffffffffffffffffffffffffffff1673ffffffffffffffffffffffffffffffffffffffff163373ffffffffffffffffffffffffffffffffffffffff161480610f235750600260009054906101000a900473ffffffffffffffffffffffffffffffffffffffff1673ffffffffffffffffffffffffffffffffffffffff163373ffffffffffffffffffffffffffffffffffffffff16145b1515610f2e57600080fd5b81600d81905550600d549050919050565b610f49838261257d565b1515610f5457600080fd5b610f5e82826125e9565b1515610f6957600080fd5b600073ffffffffffffffffffffffffffffffffffffffff168273ffffffffffffffffffffffffffffffffffffffff1614151515610fa557600080fd5b610fb0838383612655565b505050565b600160009054906101000a900473ffffffffffffffffffffffffffffffffffffffff1673ffffffffffffffffffffffffffffffffffffffff163373ffffffffffffffffffffffffffffffffffffffff1614151561101157600080fd5b600073ffffffffffffffffffffffffffffffffffffffff168173ffffffffffffffffffffffffffffffffffffffff161415151561104d57600080fd5b80600160006101000a81548173ffffffffffffffffffffffffffffffffffffffff021916908373ffffffffffffffffffffffffffffffffffffffff16021790555050565b600160009054906101000a900473ffffffffffffffffffffffffffffffffffffffff1673ffffffffffffffffffffffffffffffffffffffff163373ffffffffffffffffffffffffffffffffffffffff161415156110ed57600080fd5b600073ffffffffffffffffffffffffffffffffffffffff168173ffffffffffffffffffffffffffffffffffffffff161415151561112957600080fd5b80600260006101000a81548173ffffffffffffffffffffffffffffffffffffffff021916908373ffffffffffffffffffffffffffffffffffffffff16021790555050565b6000600160009054906101000a900473ffffffffffffffffffffffffffffffffffffffff1673ffffffffffffffffffffffffffffffffffffffff163373ffffffffffffffffffffffffffffffffffffffff161415156111cb57600080fd5b81905080601260006101000a81548173ffffffffffffffffffffffffffffffffffffffff021916908373ffffffffffffffffffffffffffffffffffffffff1602179055505050565b600160009054906101000a900473ffffffffffffffffffffffffffffffffffffffff1673ffffffffffffffffffffffffffffffffffffffff163373ffffffffffffffffffffffffffffffffffffffff1614151561126f57600080fd5b6001600260146101000a81548160ff021916908315150217905550565b601260009054906101000a900473ffffffffffffffffffffffffffffffffffffffff1681565b60086020528060005260406000206000915054906101000a900473ffffffffffffffffffffffffffffffffffffffff1681565b60006005600083815260200190815260200160002060009054906101000a900473ffffffffffffffffffffffffffffffffffffffff169050919050565b6000600660008373ffffffffffffffffffffffffffffffffffffffff1673ffffffffffffffffffffffffffffffffffffffff168152602001908152602001600020549050919050565b60056020528060005260406000206000915054906101000a900473ffffffffffffffffffffffffffffffffffffffff1681565b6000600160009054906101000a900473ffffffffffffffffffffffffffffffffffffffff1673ffffffffffffffffffffffffffffffffffffffff163373ffffffffffffffffffffffffffffffffffffffff1614806114495750600260009054906101000a900473ffffffffffffffffffffffffffffffffffffffff1673ffffffffffffffffffffffffffffffffffffffff163373ffffffffffffffffffffffffffffffffffffffff16145b151561145457600080fd5b670de0b6b3a7640000905061149d6040805190810160405280601181526020017f537461747565206f66204c696265727479000000000000000000000000000000815250611bf2565b6114db6040805190810160405280600e81526020017f5468652047726561742057616c6c000000000000000000000000000000000000815250611bf2565b6115196040805190810160405280600e81526020017f486973746f72696320436169726f000000000000000000000000000000000000815250611bf2565b6115576040805190810160405280601981526020017f50617269732c2042616e6b73206f6620746865205365696e6500000000000000815250611bf2565b6115956040805190810160405280600981526020017f54616a204d6168616c0000000000000000000000000000000000000000000000815250611bf2565b6115d36040805190810160405280600f81526020017f546f776572206f66204c6f6e646f6e0000000000000000000000000000000000815250611bf2565b6116116040805190810160405280601981526020017f59656c6c6f7773746f6e65204e6174696f6e616c205061726b00000000000000815250611bf2565b61169c608060405190810160405280604381526020017f52696f206465204a616e6569726f3a20436172696f6361204c616e647363617081526020017f6573206265747765656e20746865204d6f756e7461696e20616e64207468652081526020017f5365610000000000000000000000000000000000000000000000000000000000815250611bf2565b6116da6040805190810160405280601281526020017f5379646e6579204f7065726120486f7573650000000000000000000000000000815250611bf2565b6117186040805190810160405280601281526020017f4772656174204261727269657220526565660000000000000000000000000000815250611bf2565b6117586040805190810160405280601681526020017f52617061204e7569204e6174696f6e616c205061726b000000000000000000008152503083611d12565b506117996040805190810160405280601a81526020017f576f726b73206f6620416e746f6e692047617564c3adc2a032330000000000008152503083611d12565b50611801606060405190810160405280602381526020017f4769616e74277320436175736577617920616e6420436175736577617920436f81526020017f61737400000000000000000000000000000000000000000000000000000000008152503083611d12565b5050565b6000600260149054906101000a900460ff16905090565b611824612ca4565b600061182e612ca4565b600080600061183c87611322565b9450600085141561186e5760006040518059106118565750595b90808252806020026020018201604052509550611949565b8460405180591061187c5750595b90808252806020026020018201604052509350611897610e6b565b925060009150600090505b8281111515611945578673ffffffffffffffffffffffffffffffffffffffff166005600083815260200190815260200160002060009054906101000a900473ffffffffffffffffffffffffffffffffffffffff1673ffffffffffffffffffffffffffffffffffffffff1614156119385780848381518110151561192157fe5b906020019060200201818152505081806001019250505b80806001019150506118a2565b8395505b5050505050919050565b6000809054906101000a900473ffffffffffffffffffffffffffffffffffffffff1681565b611980612c90565b6040805190810160405280601281526020017f576f726c644865726974616765546f6b656e0000000000000000000000000000815250905090565b6004818154811015156119ca57fe5b906000526020600020900160009150905080600001905081565b6040805190810160405280601381526020017f43727970746f576f726c6448657269746167650000000000000000000000000081525081565b806005600082815260200190815260200160002060009054906101000a900473ffffffffffffffffffffffffffffffffffffffff1673ffffffffffffffffffffffffffffffffffffffff163373ffffffffffffffffffffffffffffffffffffffff16141515611a8b57600080fd5b611a96338484612655565b505050565b600d5481565b60003373ffffffffffffffffffffffffffffffffffffffff166008600084815260200190815260200160002060009054906101000a900473ffffffffffffffffffffffffffffffffffffffff1673ffffffffffffffffffffffffffffffffffffffff16141515611b1057600080fd5b611b19826112e5565b9050611b26813384612655565b5050565b60096020528060005260406000206000915090505481565b601260009054906101000a900473ffffffffffffffffffffffffffffffffffffffff1673ffffffffffffffffffffffffffffffffffffffff1663cfaad27c83836040518363ffffffff167c01000000000000000000000000000000000000000000000000000000000281526004018083815260200182815260200192505050600060405180830381600087803b1515611bda57600080fd5b6102c65a03f11515611beb57600080fd5b5050505050565b600160009054906101000a900473ffffffffffffffffffffffffffffffffffffffff1673ffffffffffffffffffffffffffffffffffffffff163373ffffffffffffffffffffffffffffffffffffffff161480611c9b5750600260009054906101000a900473ffffffffffffffffffffffffffffffffffffffff1673ffffffffffffffffffffffffffffffffffffffff163373ffffffffffffffffffffffffffffffffffffffff16145b1515611ca657600080fd5b610431600a60009054906101000a900461ffff1661ffff16101515611cca57600080fd5b611cd78130600b546128d2565b50611cf3600a60009054906101000a900461ffff166001612a57565b600a60006101000a81548161ffff021916908361ffff16021790555050565b6000600260009054906101000a900473ffffffffffffffffffffffffffffffffffffffff1673ffffffffffffffffffffffffffffffffffffffff163373ffffffffffffffffffffffffffffffffffffffff16141515611d7057600080fd5b610431600a60009054906101000a900461ffff1661ffff16101515611d9457600080fd5b600073ffffffffffffffffffffffffffffffffffffffff168373ffffffffffffffffffffffffffffffffffffffff161415611def57600260009054906101000a900473ffffffffffffffffffffffffffffffffffffffff1692505b600082111515611dff57600b5491505b611e1a600a60009054906101000a900461ffff166001612a57565b600a60006101000a81548161ffff021916908361ffff160217905550611e418484846128d2565b50600a60009054906101000a900461ffff1661ffff1690509392505050565b60008060008060008060006005600089815260200190815260200160002060009054906101000a900473ffffffffffffffffffffffffffffffffffffffff169650339550600760008981526020019081526020016000205494508573ffffffffffffffffffffffffffffffffffffffff168773ffffffffffffffffffffffffffffffffffffffff1614151515611ef557600080fd5b600073ffffffffffffffffffffffffffffffffffffffff168673ffffffffffffffffffffffffffffffffffffffff1614151515611f3157600080fd5b843410151515611f4057600080fd5b611f4985612a7d565b9350611f553486612b40565b9250611f618585612b40565b9150611f6c85612b59565b905080600760008a8152602001908152602001600020819055506000600960008a815260200190815260200160002081905550611faa87878a612655565b3073ffffffffffffffffffffffffffffffffffffffff168773ffffffffffffffffffffffffffffffffffffffff16141515612020578673ffffffffffffffffffffffffffffffffffffffff166108fc859081150290604051600060405180830381858888f19350505050151561201f57600080fd5b5b7ff07d3df5908b302cf0b0ebe60c3dbcf86bd6734e1a94e81cc9751c509ba5c38e8886600760008c8152602001908152602001600020548a8a60048e81548110151561206857fe5b9060005260206000209001600001604051808781526020018681526020018581526020018473ffffffffffffffffffffffffffffffffffffffff1673ffffffffffffffffffffffffffffffffffffffff1681526020018373ffffffffffffffffffffffffffffffffffffffff1673ffffffffffffffffffffffffffffffffffffffff168152602001806020018281038252838181546001816001161561010002031660029004815260200191508054600181600116156101000203166002900480156121755780601f1061214a57610100808354040283529160200191612175565b820191906000526020600020905b81548152906001019060200180831161215857829003601f168201915b505097505050505050505060405180910390a13373ffffffffffffffffffffffffffffffffffffffff166108fc849081150290604051600060405180830381858888f1935050505015156121c857600080fd5b600160009054906101000a900473ffffffffffffffffffffffffffffffffffffffff1673ffffffffffffffffffffffffffffffffffffffff166108fc839081150290604051600060405180830381858888f19350505050151561222a57600080fd5b5050505050505050565b6000809054906101000a900473ffffffffffffffffffffffffffffffffffffffff1673ffffffffffffffffffffffffffffffffffffffff163373ffffffffffffffffffffffffffffffffffffffff1614151561228f57600080fd5b600073ffffffffffffffffffffffffffffffffffffffff168173ffffffffffffffffffffffffffffffffffffffff16141515156122cb57600080fd5b8073ffffffffffffffffffffffffffffffffffffffff166000809054906101000a900473ffffffffffffffffffffffffffffffffffffffff1673ffffffffffffffffffffffffffffffffffffffff167f8be0079c531659141344cd1fd0a4f28419497f9722a3daafe3b4186f6b6457e060405160405180910390a3806000806101000a81548173ffffffffffffffffffffffffffffffffffffffff021916908373ffffffffffffffffffffffffffffffffffffffff16021790555050565b600160009054906101000a900473ffffffffffffffffffffffffffffffffffffffff1673ffffffffffffffffffffffffffffffffffffffff163373ffffffffffffffffffffffffffffffffffffffff161415156123e557600080fd5b6000600260146101000a81548160ff021916908315150217905550565b6040805190810160405280601281526020017f576f726c644865726974616765546f6b656e000000000000000000000000000081525081565b612443612c90565b600080600080600060048781548110151561245a57fe5b90600052602060002090019050806000018054600181600116156101000203166002900480601f0160208091040260200160405190810160405280929190818152602001828054600181600116156101000203166002900480156124ff5780601f106124d4576101008083540402835291602001916124ff565b820191906000526020600020905b8154815290600101906020018083116124e257829003601f168201915b50505050509550600760008881526020019081526020016000205494506005600088815260200190815260200160002060009054906101000a900473ffffffffffffffffffffffffffffffffffffffff16935061255b85612b59565b9250600960008881526020019081526020016000205491505091939590929450565b60006005600083815260200190815260200160002060009054906101000a900473ffffffffffffffffffffffffffffffffffffffff1673ffffffffffffffffffffffffffffffffffffffff168373ffffffffffffffffffffffffffffffffffffffff1614905092915050565b60008273ffffffffffffffffffffffffffffffffffffffff166008600084815260200190815260200160002060009054906101000a900473ffffffffffffffffffffffffffffffffffffffff1673ffffffffffffffffffffffffffffffffffffffff1614905092915050565b61269f600660008473ffffffffffffffffffffffffffffffffffffffff1673ffffffffffffffffffffffffffffffffffffffff168152602001908152602001600020546001612c1c565b600660008473ffffffffffffffffffffffffffffffffffffffff1673ffffffffffffffffffffffffffffffffffffffff16815260200190815260200160002081905550816005600083815260200190815260200160002060006101000a81548173ffffffffffffffffffffffffffffffffffffffff021916908373ffffffffffffffffffffffffffffffffffffffff160217905550600073ffffffffffffffffffffffffffffffffffffffff168373ffffffffffffffffffffffffffffffffffffffff1614151561282e576127b4600660008573ffffffffffffffffffffffffffffffffffffffff1673ffffffffffffffffffffffffffffffffffffffff168152602001908152602001600020546001612b40565b600660008573ffffffffffffffffffffffffffffffffffffffff1673ffffffffffffffffffffffffffffffffffffffff168152602001908152602001600020819055506008600082815260200190815260200160002060006101000a81549073ffffffffffffffffffffffffffffffffffffffff02191690555b7fddf252ad1be2c89b69c2b068fc378daa952ba7f163c4a11628f55a4df523b3ef838383604051808473ffffffffffffffffffffffffffffffffffffffff1673ffffffffffffffffffffffffffffffffffffffff1681526020018373ffffffffffffffffffffffffffffffffffffffff1673ffffffffffffffffffffffffffffffffffffffff168152602001828152602001935050505060405180910390a1505050565b60006128dc612cb8565b60006020604051908101604052808781525091506001600480548060010182816129069190612cd2565b916000526020600020900160008590919091506000820151816000019080519060200190612935929190612cfe565b5050500390508063ffffffff168114151561294f57600080fd5b7f89de759f2a88377b85770aafcfcb342946f5991f6d9e00db51940fc35f8a458a81878760405180848152602001806020018373ffffffffffffffffffffffffffffffffffffffff1673ffffffffffffffffffffffffffffffffffffffff168152602001828103825284818151815260200191508051906020019080838360005b838110156129eb5780820151818401526020810190506129d0565b50505050905090810190601f168015612a185780820380516001836020036101000a031916815260200191505b5094505050505060405180910390a1836007600083815260200190815260200160002081905550612a4b60008683612655565b80925050509392505050565b60008082840190508361ffff168161ffff1610151515612a7357fe5b8091505092915050565b600080600e5483111515612aa757612aa0612a9984605d612c3a565b6064612c75565b9050612b37565b600f5483111515612ace57612ac7612ac084605f612c3a565b6064612c75565b9050612b36565b60105483111515612af557612aee612ae7846061612c3a565b6064612c75565b9050612b35565b60115483111515612b1c57612b15612b0e846061612c3a565b6064612c75565b9050612b34565b612b31612b2a846062612c3a565b6064612c75565b90505b5b5b5b80915050919050565b6000828211151515612b4e57fe5b818303905092915050565b600080600e5483111515612b8357612b7c612b758460c8612c3a565b6064612c75565b9050612c13565b600f5483111515612baa57612ba3612b9c846087612c3a565b6064612c75565b9050612c12565b60105483111515612bd157612bca612bc384607d612c3a565b6064612c75565b9050612c11565b60115483111515612bf857612bf1612bea846075612c3a565b6064612c75565b9050612c10565b612c0d612c06846073612c3a565b6064612c75565b90505b5b5b5b80915050919050565b6000808284019050838110151515612c3057fe5b8091505092915050565b6000806000841415612c4f5760009150612c6e565b8284029050828482811515612c6057fe5b04141515612c6a57fe5b8091505b5092915050565b6000808284811515612c8357fe5b0490508091505092915050565b602060405190810160405280600081525090565b602060405190810160405280600081525090565b602060405190810160405280612ccc612d7e565b81525090565b815481835581811511612cf957818360005260206000209182019101612cf89190612d92565b5b505050565b828054600181600116156101000203166002900490600052602060002090601f016020900481019282601f10612d3f57805160ff1916838001178555612d6d565b82800160010185558215612d6d579182015b82811115612d6c578251825591602001919060010190612d51565b5b509050612d7a9190612dc1565b5090565b602060405190810160405280600081525090565b612dbe91905b80821115612dba5760008082016000612db19190612de6565b50600101612d98565b5090565b90565b612de391905b80821115612ddf576000816000905550600101612dc7565b5090565b90565b50805460018160011615610100020316600290046000825580601f10612e0c5750612e2b565b601f016020900490600052602060002090810190612e2a9190612dc1565b5b505600a165627a7a72305820410e6aadbc2ee9c3b91903046d083ecf72a1684c957394f4420e613857860a750029",
  "source": "pragma solidity ^0.4.18;\n/**\n * @title Ownable\n * @dev The Ownable contract has an owner address, and provides basic authorization control\n * functions, this simplifies the implementation of \"user permissions\".\n */\ncontract Ownable {\n  address public owner;\n\n  event OwnershipTransferred(address indexed previousOwner, address indexed newOwner);\n\n  /**\n   * @dev The Ownable constructor sets the original `owner` of the contract to the sender\n   * account.\n   */\n  function Ownable() public {\n    owner = msg.sender;\n  }\n\n  /**\n   * @dev Throws if called by any account other than the owner.\n   */\n  modifier onlyOwner() {\n    require(msg.sender == owner);\n    _;\n  }\n\n  /**\n   * @dev Allows the current owner to transfer control of the contract to a newOwner.\n   * @param newOwner The address to transfer ownership to.\n   */\n  function transferOwnership(address newOwner) public onlyOwner {\n    require(newOwner != address(0));\n    OwnershipTransferred(owner, newOwner);\n    owner = newOwner;\n  }\n\n}\n// @title Interface for contracts conforming to ERC-721: Non-Fungible Tokens\n/// @author Dieter Shirley <dete@axiomzen.co> (https://github.com/dete)\ncontract ERC721 {\n  // Required methods\n  function approve(address _to, uint256 _tokenId) public;\n  function balanceOf(address _owner) public view returns (uint256 balance);\n  function implementsERC721() public pure returns (bool);\n  function ownerOf(uint256 _tokenId) public view returns (address addr);\n  function takeOwnership(uint256 _tokenId) public;\n  function totalSupply() public view returns (uint256 total);\n  function transferFrom(address _from, address _to, uint256 _tokenId) public;\n  function transfer(address _to, uint256 _tokenId) public;\n\n  event Transfer(address indexed from, address indexed to, uint256 tokenId);\n  event Approval(address indexed owner, address indexed approved, uint256 tokenId);\n\n  // Optional\n   function name() public view returns (string name);\n   function symbol() public view returns (string symbol);\n  // function tokenOfOwnerByIndex(address _owner, uint256 _index) external view returns (uint256 tokenId);\n  // function tokenMetadata(uint256 _tokenId) public view returns (string infoUrl);\n}\n\n/**\n * @title SafeMath\n * @dev Math operations with safety checks that throw on error\n */\nlibrary SafeMath {\n\n  /**\n  * @dev Multiplies two numbers, throws on overflow.\n  */\n  function mul(uint256 a, uint256 b) internal pure returns (uint256) {\n    if (a == 0) {\n      return 0;\n    }\n    uint256 c = a * b;\n    assert(c / a == b);\n    return c;\n  }\n\n  /**\n  * @dev Integer division of two numbers, truncating the quotient.\n  */\n  function div(uint256 a, uint256 b) internal pure returns (uint256) {\n    // assert(b > 0); // Solidity automatically throws when dividing by 0\n    uint256 c = a / b;\n    // assert(a == b * c + a % b); // There is no case in which this doesn't hold\n    return c;\n  }\n\n  /**\n  * @dev Substracts two numbers, throws on overflow (i.e. if subtrahend is greater than minuend).\n  */\n  function sub(uint256 a, uint256 b) internal pure returns (uint256) {\n    assert(b <= a);\n    return a - b;\n  }\n\n  /**\n  * @dev Adds two numbers, throws on overflow.\n  */\n  function add(uint256 a, uint256 b) internal pure returns (uint256) {\n    uint256 c = a + b;\n    assert(c >= a);\n    return c;\n  }\n}\n\n/**\n * @title SafeMath32\n * @dev SafeMath library implemented for uint32\n */\nlibrary SafeMath32 {\n\n  function mul(uint32 a, uint32 b) internal pure returns (uint32) {\n    if (a == 0) {\n      return 0;\n    }\n    uint32 c = a * b;\n    assert(c / a == b);\n    return c;\n  }\n\n  function div(uint32 a, uint32 b) internal pure returns (uint32) {\n    // assert(b > 0); // Solidity automatically throws when dividing by 0\n    uint32 c = a / b;\n    // assert(a == b * c + a % b); // There is no case in which this doesn't hold\n    return c;\n  }\n\n  function sub(uint32 a, uint32 b) internal pure returns (uint32) {\n    assert(b <= a);\n    return a - b;\n  }\n\n  function add(uint32 a, uint32 b) internal pure returns (uint32) {\n    uint32 c = a + b;\n    assert(c >= a);\n    return c;\n  }\n}\n\n/**\n * @title SafeMath16\n * @dev SafeMath library implemented for uint16\n */\nlibrary SafeMath16 {\n\n  function mul(uint16 a, uint16 b) internal pure returns (uint16) {\n    if (a == 0) {\n      return 0;\n    }\n    uint16 c = a * b;\n    assert(c / a == b);\n    return c;\n  }\n\n  function div(uint16 a, uint16 b) internal pure returns (uint16) {\n    // assert(b > 0); // Solidity automatically throws when dividing by 0\n    uint16 c = a / b;\n    // assert(a == b * c + a % b); // There is no case in which this doesn't hold\n    return c;\n  }\n\n  function sub(uint16 a, uint16 b) internal pure returns (uint16) {\n    assert(b <= a);\n    return a - b;\n  }\n\n  function add(uint16 a, uint16 b) internal pure returns (uint16) {\n    uint16 c = a + b;\n    assert(c >= a);\n    return c;\n  }\n}\ncontract WorldHeritageAccessControl is Ownable {\n\n    address ceoAddress;\n    address cooAddress;\n\n    function WorldHeritageAccessControl() {\n        // constructor\n    }\n\n      /*** ACCESS MODIFIERS ***/\n  /// @dev Access modifier for CEO-only functionality\n  modifier onlyCEO() {\n    require(msg.sender == ceoAddress);\n    _;\n  }\n\n  /// @dev Access modifier for COO-only functionality\n  modifier onlyCOO() {\n    require(msg.sender == cooAddress);\n    _;\n  }\n\n  /// Access modifier for contract owner only functionality\n  modifier onlyCLevel() {\n    require(\n      msg.sender == ceoAddress ||\n      msg.sender == cooAddress\n    );\n    _;\n  }\n\n    bool isPaused;\n    \n    /*\n    We use the following functions to pause and unpause the game.\n    */\n    function pauseGame() public onlyCEO {\n        isPaused = true;\n    }\n    function unPauseGame() public onlyCEO {\n        isPaused = false;\n    }\n\n    function GetIsPauded() public view returns(bool) {\n       return(isPaused);\n    }\n\n      /// @dev Assigns a new address to act as the CEO. Only available to the current CEO.\n  /// @param _newCEO The address of the new CEO\n  function setCEO(address _newCEO) public onlyCEO {\n    require(_newCEO != address(0));\n\n    ceoAddress = _newCEO;\n  }\n\n  /// @dev Assigns a new address to act as the COO. Only available to the current COO.\n  /// @param _newCOO The address of the new COO\n  function setCOO(address _newCOO) public onlyCEO {\n    require(_newCOO != address(0));\n\n    cooAddress = _newCOO;\n  }\n}\n\ncontract WorldHeritageBase is WorldHeritageAccessControl {\n    using SafeMath for SafeMath;\n\n    uint promoCreatedCount;\n    /// @dev The NewWorldHeritage event is fired whenever a new worldheritage comes into existence.\n    event NewWorldHeritage(uint tokenId,string name, address _address);\n\n    /// @dev Transfer event as defined in current draft of ERC721. \n    ///  ownership is assigned.\n    event Transfer(address from, address to, uint256 tokenId);\n\n    function WorldHeritageBase() {\n        // constructor  \n    }\n\n    //define structs\n    struct WorldHeritage {\n        string name;\n    }\n    //dynamic Array\n    WorldHeritage[] public worldheritages;  \n\n    /**mapping**/\n    mapping (uint256 => address) public IndexToOwner;\n    mapping (address => uint256) ownershipTokenCount;\n    mapping (uint256 => uint256) IndexToPrice;\n    mapping (uint256 => address) public IndexToApproved;\n    mapping (uint256 => uint256) public IndexToRemainPrice;\n\n     /// Check for token ownership\n  modifier onlyOwnerOf(uint _tokenId) {\n    require(msg.sender == IndexToOwner[_tokenId]);\n    _;\n  }\n\n    /// For creating promos\n    function _createPromos(string _name, address _owner, uint256 _price) internal returns(uint) {\n\n    WorldHeritage memory _worldheritage = WorldHeritage({\n      name: _name\n    });\n    uint256 newTokenId = worldheritages.push(_worldheritage) - 1;\n\n    // It's probably never going to happen, 4 billion tokens are A LOT, but\n    // let's just be 100% sure we never let this happen.\n    require(newTokenId == uint256(uint32(newTokenId)));\n    //event\n    NewWorldHeritage(newTokenId, _name, _owner);\n\n    IndexToPrice[newTokenId] = _price;\n\n    // This will assign ownership, and also emit the Transfer event as\n    // per ERC721 draft\n    _transfer(address(0), _owner, newTokenId);\n    return newTokenId;\n  }\n\n  /// @dev Assigns ownership of a specific worldheritage to an address.\n  function _transfer(address _from, address _to, uint256 _tokenId) internal {\n    // Since the number of persons is capped to 2^32 we can't overflow this\n    ownershipTokenCount[_to] = SafeMath.add(ownershipTokenCount[_to],1);\n    //transfer ownership\n    IndexToOwner[_tokenId] = _to;\n\n    // When creating new worldheritage _from is 0x0, but we can't account that address.\n    if (_from != address(0)) {\n      ownershipTokenCount[_from] = SafeMath.sub(ownershipTokenCount[_from],1);\n      // clear any previously approved ownership exchange\n      delete IndexToApproved[_tokenId];\n    }\n    // Emit the transfer event.\n    Transfer(_from, _to, _tokenId);\n  }\n}\n\n/// @title ERC721 \n/// @author rainysiu\n/// @dev the worldheritageownership \ncontract WorldHeritageOwnership is WorldHeritageBase, ERC721 {\n\n //using SafeMath for uint256;\n /*** CONSTANTS ***/\n  /// @notice Name and symbol of the non fungible token, as defined in ERC721.\n  string public constant NAME = \"CryptoWorldHeritage\"; // solhint-disable-line\n  string public constant SYMBOL = \"WorldHeritageToken\"; // solhint-disable-line\n\n  //mapping (uint => address) zombieApprovals;\n\n  function balanceOf(address _owner) public view returns (uint256 _balance) {\n    return ownershipTokenCount[_owner];\n  }\n\n  function ownerOf(uint256 _tokenId) public view returns (address _owner) {\n    return IndexToOwner[_tokenId];\n  }\n\n  function transfer(address _to, uint256 _tokenId) public onlyOwnerOf(_tokenId) {\n    _transfer(msg.sender, _to, _tokenId);\n  }\n\n   /// Third-party initiates transfer of token from address _from to address _to\n  /// @param _from The address for the token to be transferred from.\n  /// @param _to The address for the token to be transferred to.\n  /// @param _tokenId The ID of the Token that can be transferred if this call succeeds.\n  /// @dev Required for ERC-721 compliance.\n  /*function transferFrom(address _from, address _to, uint256 _tokenId) public onlyOwnerOf(_tokenId) onlyApproved(_to, _tokenId) addressNotNull(_to) {\n    _transfer(_from, _to, _tokenId);\n  }*/\n\n  function transferFrom(address _from, address _to, uint256 _tokenId) public {\n    require(_owns(_from, _tokenId));\n    require(_approved(_to, _tokenId));\n    require(_to != address(0));\n\n    _transfer(_from, _to, _tokenId);\n  }\n\n  /// For checking approval of transfer for address _to\n  function _approved(address _to, uint256 _tokenId) private view returns (bool) {\n    return IndexToApproved[_tokenId] == _to;\n  }\n /// Check for token ownership\n  function _owns(address claimant, uint256 _tokenId) private view returns (bool) {\n    return claimant == IndexToOwner[_tokenId];\n  }\n\n\n  function approve(address _to, uint256 _tokenId) public onlyOwnerOf(_tokenId) {\n    IndexToApproved[_tokenId] = _to;\n    Approval(msg.sender, _to, _tokenId);\n  }\n\n  function takeOwnership(uint256 _tokenId) public {\n    require(IndexToApproved[_tokenId] == msg.sender);\n    address owner = ownerOf(_tokenId);\n    _transfer(owner, msg.sender, _tokenId);\n  }\n\n  function name() public view returns (string _name) {\n    return NAME;\n  }\n\n  function symbol() public view returns (string _symbol) {\n    return SYMBOL;\n  }\n\n   function implementsERC721() public pure returns (bool) {\n    return true;\n  }\n    /// For querying totalSupply of token\n  /// @dev Required for ERC-721 compliance.\n  function totalSupply() public view returns (uint256 total) {\n    return worldheritages.length;\n  }\n\n}\n\ncontract WorldHeritageMinting is WorldHeritageOwnership {\n    uint256 private constant PROMO_CREATION_LIMIT = 1073;\n    uint16 public promoCreatedCount;\n\n    uint256 private startingPrice = 0.01 ether;\n\n    function WorldHeritageMinting() {\n        //\n    }\n\n    /// @dev Creates a new promo worldheritage with the given name, with given _price and assignes it to an address.\n    function createPromos(string _name, address _address, uint _price) public onlyCOO returns (uint256) {\n        require(promoCreatedCount < PROMO_CREATION_LIMIT); //\n        if (_address == address(0)) {\n            _address = cooAddress;\n        }\n        if (_price <= 0) {\n            _price = startingPrice;\n        }\n        promoCreatedCount = SafeMath16.add(promoCreatedCount,1);\n        _createPromos(_name, _address, _price);\n        return promoCreatedCount;\n    }\n\n     /// @dev Creates a new Worldheritage with the given name.\n    function createWorldHeritage(string _name) public onlyCLevel {\n        require(promoCreatedCount < PROMO_CREATION_LIMIT); //\n\n        _createPromos(_name, address(this), startingPrice);\n        \n        promoCreatedCount = SafeMath16.add(promoCreatedCount,1);\n    }\n\n}\n\ncontract WorldHeritageSell is WorldHeritageMinting {\n\n using SafeMath16 for SafeMath16; \n    /// @dev The BuyToken event is fired whenever a token is sold.\n  event BuyToken(uint256 tokenId, uint256 oldPrice, uint256 newPrice, address prevOwner, address winner, string name);\n\n  function WorldHeritageSell() {\n      \n    }\n  /*** CONSTANTS ***/\n\n  //uint256 private constant PROMO_CREATION_LIMIT = 1073;\n  uint16 public promoCreatedCount;\n  uint256 public CrowdFundingLimit;\n\n  //uint256 private startingPrice = 0.01 ether;\n  uint256 private firstStepLimit =  0.499999 ether;\n  uint256 private secondStepLimit = 1.999999 ether;\n  uint256 private thirdStepLimit =  4.999999 ether;\n  uint256 private fourthStepLimit = 9.999999 ether;\n\n    // Allows someone to send ether and obtain the token\n  function purchase(uint256 _tokenId) public payable {\n    address oldOwner = IndexToOwner[_tokenId];\n    address newOwner = msg.sender;\n\n    uint256 sellingPrice = IndexToPrice[_tokenId];\n\n    // Making sure token owner is not sending to self\n    require(oldOwner != newOwner);\n\n    // Safety check to prevent against an unexpected 0x0 default.\n    require(newOwner != address(0));\n    \n    // Making sure sent amount is greater than or equal to the sellingPrice\n    require(msg.value >= sellingPrice);\n\n\n    uint256 payment = getPayment(sellingPrice); //-   7%\n    uint256 purchaseExcess = SafeMath.sub(msg.value, sellingPrice); //\n    uint256 commission = SafeMath.sub(sellingPrice,payment); // \n\n    uint256 nextPrice = uint256(getNextPrice(sellingPrice));\n    \n    //update prices\n    IndexToPrice[_tokenId] = nextPrice;\n    IndexToRemainPrice[_tokenId] = 0;\n\n    _transfer(oldOwner, newOwner, _tokenId);\n\n    // Pay previous tokenOwner if owner is not contract\n    if (oldOwner != address(this)) {\n      oldOwner.transfer(payment); //(1-0.07)\n    }\n    //event \n    BuyToken(_tokenId, sellingPrice, IndexToPrice[_tokenId], oldOwner, newOwner, worldheritages[_tokenId].name);\n\n    msg.sender.transfer(purchaseExcess);\n    ceoAddress.transfer(commission); \n  }\n\n  function getNextPrice(uint256 _curPrice) internal view returns (uint256) {\n    uint256 nextPrice;\n         // calculate price\n    if (_curPrice <= firstStepLimit) {\n      // first stage  0.01 - 0.5  7%\n      nextPrice = SafeMath.div(SafeMath.mul(_curPrice, 200), 100);\n    } else if (_curPrice <= secondStepLimit) {\n      // second stage 0.5 - 2.0  5%\n      nextPrice = SafeMath.div(SafeMath.mul(_curPrice, 135), 100);\n    } else if (_curPrice <= thirdStepLimit) {\n      // third stage  2.0 -5.0  3%\n      nextPrice = SafeMath.div(SafeMath.mul(_curPrice, 125), 100);\n    } else if (_curPrice <= fourthStepLimit) {\n    // fourth stage  5.0 - 10.0  3&\n      nextPrice = SafeMath.div(SafeMath.mul(_curPrice, 117), 100);\n    } else {\n     // > 10  2%\n      nextPrice = SafeMath.div(SafeMath.mul(_curPrice, 115), 100);\n    }\n    return nextPrice;\n    }\n\n    function getPayment(uint256 _curPrice) internal view returns (uint256) {\n    uint256 payment;\n     // Update prices\n    if (_curPrice <= firstStepLimit) {\n      // first stage  0.01 - 0.5  7%\n      payment = uint256(SafeMath.div(SafeMath.mul(_curPrice, 93), 100));\n    } else if (_curPrice <= secondStepLimit) {\n      // second stage 0.5 - 2.0  5%\n      payment = uint256(SafeMath.div(SafeMath.mul(_curPrice, 95), 100));\n    } else if (_curPrice <= thirdStepLimit) {\n      // third stage  2.0 -5.0  3%\n      payment = uint256(SafeMath.div(SafeMath.mul(_curPrice, 97), 100));\n    } else if (_curPrice <= fourthStepLimit) {\n    // fourth stage  5.0 - 10.0  3&\n      payment = uint256(SafeMath.div(SafeMath.mul(_curPrice, 97), 100));\n    } else {\n     // > 10  2%\n      payment = uint256(SafeMath.div(SafeMath.mul(_curPrice, 98), 100));\n    }\n    return payment;\n    }\n\n    function setCrowdFundingLimit (uint256 _price) public onlyCLevel returns (uint256) {\n        CrowdFundingLimit = _price;\n        return CrowdFundingLimit;\n    }\n\t/// @dev The address of the sibling contract that is used to implement the sooper-sekret\n    ///  genetic combination algorithm.\n    CrowdFundingCore public crowdfunding;\n\n    /// @dev Update the address of the genetic contract, can only be called by the CEO.\n    /// @param _address An address of a GeneScience contract instance to be used from this point forward.\n    /*function setCrowdFundingCore(address _address) external onlyCEO {\n        CrowdFundingCore candidateContract = CrowdFundingCore(_address);\n        // Set the new contract address\n        crowdfunding = candidateContract;\n    }\n\n    function groupbuy (uint256 _tokenId, uint256 _price) public payable {\n        require(IndexToPrice[_tokenId] >= CrowdFundingLimit);\n        crowdfunding._groupbuy(_tokenId, _price);\n    }*/\n\n}\n\ncontract CrowdFundingCore {\n\n    function CrowdFundingCore() {\n\n    }\n    uint256 crowdfundingLimit = 0.1 ether;\n    function voting(uint256 _tokenId, uint256 _amount) public {\n       require(_amount >= crowdfundingLimit); \n    }\n\n}\ncontract WorldHeritageCore is WorldHeritageSell {\n  /*** CONSTRUCTOR ***/\n  function WorldHeritageCore() public {\n    ceoAddress = msg.sender;\n    cooAddress = msg.sender;\n\n  }\n\n   /// @notice No tipping!\n    /// @dev Reject all Ether from being sent here, unless it's from one of the\n    ///  two auction contracts. (Hopefully, we can prevent user accidents.)\n    function() external payable {\n    }\n\n    function setCrowdFundingCore(address _address) external onlyCEO {\n        CrowdFundingCore candidateContract = CrowdFundingCore(_address);\n        // Set the new contract address\n        crowdfunding = candidateContract;\n    }\n\n  /// @notice Returns all the relevant information about a specific tokenId.\n  /// @param _tokenId The tokenId of the worldheritage.\n  function getWorldHeritage(uint256 _tokenId) public view returns (\n    string tokenName,\n    uint256 sellingPrice,\n    address owner,\n    uint256 nextPrice,\n    uint256 remainPrice \n  ) {\n    WorldHeritage storage worldheritage = worldheritages[_tokenId];\n    tokenName = worldheritage.name;\n    sellingPrice = IndexToPrice[_tokenId];\n    owner = IndexToOwner[_tokenId];\n    nextPrice = getNextPrice(sellingPrice);\n    remainPrice = IndexToRemainPrice[_tokenId];\n  }\n\n  \n  function tokensOfOwner(address _owner) public view returns(uint256[] ownerTokens) {\n    uint256 tokenCount = balanceOf(_owner);\n    if (tokenCount == 0) {\n        // Return an empty array\n      return new uint256[](0);\n    } else {\n      uint256[] memory result = new uint256[](tokenCount);\n\n      uint256 totalWorldHeritages = totalSupply();\n      uint256 resultIndex = 0;\n\n      uint256 tokenId;\n      for (tokenId = 0; tokenId <= totalWorldHeritages; tokenId++) {\n        if (IndexToOwner[tokenId] == _owner) {\n          result[resultIndex] = tokenId;\n          resultIndex++;\n        }\n      }\n      return result;\n    }\n  }\n\n  function groupbuy(uint256 _tokenId, uint256 _price) public payable {\n      crowdfunding.voting(_tokenId, _price);\n  }\n  function initialWorldHeritageInfo() public onlyCLevel {\n      uint256 sPrice = 1 ether;\n      createWorldHeritage(\"Statue of Liberty\");\n      createWorldHeritage(\"The Great Wall\");\n      createWorldHeritage(\"Historic Cairo\");\n      createWorldHeritage(\"Paris, Banks of the Seine\");\n      createWorldHeritage(\"Taj Mahal\");\n      createWorldHeritage(\"Tower of London\");\n      createWorldHeritage(\"Yellowstone National Park\");\n      createWorldHeritage(\"Rio de Janeiro: Carioca Landscapes between the Mountain and the Sea\");      \n      createWorldHeritage(\"Sydney Opera House\");\n      createWorldHeritage(\"Great Barrier Reef\");\n      createPromos(\"Rapa Nui National Park\",address(this),sPrice);\n      createPromos(\"Works of Antoni Gaud23\",address(this),sPrice);\n      createPromos(\"Giant's Causeway and Causeway Coast\",address(this),sPrice);\n      }\n}",
  "sourcePath": "/Users/rainysiu/BCProj/WorldHeritage/contracts/worldheritageToken.sol",
  "compiler": {
    "name": "solc",
    "version": "0.4.18+commit.9cf6e910.Emscripten.clang"
  },
  "schemaVersion": "1.0.1",
  "updatedAt": "2018-03-20T09:04:58.828Z"
}