{
  "contractName": "WorldHeritageCore",
  "abi": [
    {
      "constant": true,
      "inputs": [],
      "name": "getWorldHeritageCount",
      "outputs": [
        {
          "name": "",
          "type": "uint16"
        }
      ],
      "payable": false,
      "stateMutability": "view",
      "type": "function"
    },
    {
      "constant": true,
      "inputs": [],
      "name": "promoCreatedCount",
      "outputs": [
        {
          "name": "",
          "type": "uint16"
        }
      ],
      "payable": false,
      "stateMutability": "view",
      "type": "function"
    },
    {
      "constant": true,
      "inputs": [],
      "name": "name",
      "outputs": [
        {
          "name": "_name",
          "type": "string"
        }
      ],
      "payable": false,
      "stateMutability": "view",
      "type": "function"
    },
    {
      "constant": false,
      "inputs": [
        {
          "name": "_to",
          "type": "address"
        },
        {
          "name": "_tokenId",
          "type": "uint256"
        }
      ],
      "name": "approve",
      "outputs": [],
      "payable": false,
      "stateMutability": "nonpayable",
      "type": "function"
    },
    {
      "constant": true,
      "inputs": [],
      "name": "implementsERC721",
      "outputs": [
        {
          "name": "",
          "type": "bool"
        }
      ],
      "payable": false,
      "stateMutability": "pure",
      "type": "function"
    },
    {
      "constant": true,
      "inputs": [],
      "name": "totalSupply",
      "outputs": [
        {
          "name": "total",
          "type": "uint256"
        }
      ],
      "payable": false,
      "stateMutability": "view",
      "type": "function"
    },
    {
      "constant": false,
      "inputs": [
        {
          "name": "_from",
          "type": "address"
        },
        {
          "name": "_to",
          "type": "address"
        },
        {
          "name": "_tokenId",
          "type": "uint256"
        }
      ],
      "name": "transferFrom",
      "outputs": [],
      "payable": false,
      "stateMutability": "nonpayable",
      "type": "function"
    },
    {
      "constant": false,
      "inputs": [
        {
          "name": "_newCEO",
          "type": "address"
        }
      ],
      "name": "setCEO",
      "outputs": [],
      "payable": false,
      "stateMutability": "nonpayable",
      "type": "function"
    },
    {
      "constant": false,
      "inputs": [
        {
          "name": "_newCOO",
          "type": "address"
        }
      ],
      "name": "setCOO",
      "outputs": [],
      "payable": false,
      "stateMutability": "nonpayable",
      "type": "function"
    },
    {
      "constant": false,
      "inputs": [],
      "name": "pauseGame",
      "outputs": [],
      "payable": false,
      "stateMutability": "nonpayable",
      "type": "function"
    },
    {
      "constant": true,
      "inputs": [
        {
          "name": "",
          "type": "uint256"
        }
      ],
      "name": "IndexToApproved",
      "outputs": [
        {
          "name": "",
          "type": "address"
        }
      ],
      "payable": false,
      "stateMutability": "view",
      "type": "function"
    },
    {
      "constant": true,
      "inputs": [
        {
          "name": "_tokenId",
          "type": "uint256"
        }
      ],
      "name": "ownerOf",
      "outputs": [
        {
          "name": "_owner",
          "type": "address"
        }
      ],
      "payable": false,
      "stateMutability": "view",
      "type": "function"
    },
    {
      "constant": true,
      "inputs": [
        {
          "name": "_owner",
          "type": "address"
        }
      ],
      "name": "balanceOf",
      "outputs": [
        {
          "name": "_balance",
          "type": "uint256"
        }
      ],
      "payable": false,
      "stateMutability": "view",
      "type": "function"
    },
    {
      "constant": true,
      "inputs": [
        {
          "name": "",
          "type": "uint256"
        }
      ],
      "name": "IndexToOwner",
      "outputs": [
        {
          "name": "",
          "type": "address"
        }
      ],
      "payable": false,
      "stateMutability": "view",
      "type": "function"
    },
    {
      "constant": true,
      "inputs": [],
      "name": "GetIsPauded",
      "outputs": [
        {
          "name": "",
          "type": "bool"
        }
      ],
      "payable": false,
      "stateMutability": "view",
      "type": "function"
    },
    {
      "constant": true,
      "inputs": [
        {
          "name": "_owner",
          "type": "address"
        }
      ],
      "name": "tokensOfOwner",
      "outputs": [
        {
          "name": "ownerTokens",
          "type": "uint256[]"
        }
      ],
      "payable": false,
      "stateMutability": "view",
      "type": "function"
    },
    {
      "constant": true,
      "inputs": [],
      "name": "owner",
      "outputs": [
        {
          "name": "",
          "type": "address"
        }
      ],
      "payable": false,
      "stateMutability": "view",
      "type": "function"
    },
    {
      "constant": true,
      "inputs": [],
      "name": "symbol",
      "outputs": [
        {
          "name": "_symbol",
          "type": "string"
        }
      ],
      "payable": false,
      "stateMutability": "view",
      "type": "function"
    },
    {
      "constant": true,
      "inputs": [
        {
          "name": "",
          "type": "uint256"
        }
      ],
      "name": "worldheritages",
      "outputs": [
        {
          "name": "name",
          "type": "string"
        }
      ],
      "payable": false,
      "stateMutability": "view",
      "type": "function"
    },
    {
      "constant": true,
      "inputs": [],
      "name": "NAME",
      "outputs": [
        {
          "name": "",
          "type": "string"
        }
      ],
      "payable": false,
      "stateMutability": "view",
      "type": "function"
    },
    {
      "constant": false,
      "inputs": [
        {
          "name": "_to",
          "type": "address"
        },
        {
          "name": "_tokenId",
          "type": "uint256"
        }
      ],
      "name": "transfer",
      "outputs": [],
      "payable": false,
      "stateMutability": "nonpayable",
      "type": "function"
    },
    {
      "constant": false,
      "inputs": [
        {
          "name": "_tokenId",
          "type": "uint256"
        }
      ],
      "name": "takeOwnership",
      "outputs": [],
      "payable": false,
      "stateMutability": "nonpayable",
      "type": "function"
    },
    {
      "constant": true,
      "inputs": [
        {
          "name": "_tokenId",
          "type": "uint256"
        }
      ],
      "name": "priceOf",
      "outputs": [
        {
          "name": "price",
          "type": "uint256"
        }
      ],
      "payable": false,
      "stateMutability": "view",
      "type": "function"
    },
    {
      "constant": false,
      "inputs": [
        {
          "name": "_name",
          "type": "string"
        }
      ],
      "name": "createWorldHeritage",
      "outputs": [],
      "payable": false,
      "stateMutability": "nonpayable",
      "type": "function"
    },
    {
      "constant": false,
      "inputs": [
        {
          "name": "_tokenId",
          "type": "uint256"
        }
      ],
      "name": "purchase",
      "outputs": [],
      "payable": true,
      "stateMutability": "payable",
      "type": "function"
    },
    {
      "constant": false,
      "inputs": [
        {
          "name": "newOwner",
          "type": "address"
        }
      ],
      "name": "transferOwnership",
      "outputs": [],
      "payable": false,
      "stateMutability": "nonpayable",
      "type": "function"
    },
    {
      "constant": false,
      "inputs": [],
      "name": "unPauseGame",
      "outputs": [],
      "payable": false,
      "stateMutability": "nonpayable",
      "type": "function"
    },
    {
      "constant": true,
      "inputs": [],
      "name": "SYMBOL",
      "outputs": [
        {
          "name": "",
          "type": "string"
        }
      ],
      "payable": false,
      "stateMutability": "view",
      "type": "function"
    },
    {
      "constant": true,
      "inputs": [
        {
          "name": "_tokenId",
          "type": "uint256"
        }
      ],
      "name": "getWorldHeritage",
      "outputs": [
        {
          "name": "tokenName",
          "type": "string"
        },
        {
          "name": "sellingPrice",
          "type": "uint256"
        },
        {
          "name": "owner",
          "type": "address"
        }
      ],
      "payable": false,
      "stateMutability": "view",
      "type": "function"
    },
    {
      "inputs": [],
      "payable": false,
      "stateMutability": "nonpayable",
      "type": "constructor"
    },
    {
      "payable": true,
      "stateMutability": "payable",
      "type": "fallback"
    },
    {
      "anonymous": false,
      "inputs": [
        {
          "indexed": false,
          "name": "tokenId",
          "type": "uint256"
        },
        {
          "indexed": false,
          "name": "oldPrice",
          "type": "uint256"
        },
        {
          "indexed": false,
          "name": "newPrice",
          "type": "uint256"
        },
        {
          "indexed": false,
          "name": "prevOwner",
          "type": "address"
        },
        {
          "indexed": false,
          "name": "winner",
          "type": "address"
        },
        {
          "indexed": false,
          "name": "name",
          "type": "string"
        }
      ],
      "name": "BuyToken",
      "type": "event"
    },
    {
      "anonymous": false,
      "inputs": [
        {
          "indexed": true,
          "name": "from",
          "type": "address"
        },
        {
          "indexed": true,
          "name": "to",
          "type": "address"
        },
        {
          "indexed": false,
          "name": "tokenId",
          "type": "uint256"
        }
      ],
      "name": "Transfer",
      "type": "event"
    },
    {
      "anonymous": false,
      "inputs": [
        {
          "indexed": true,
          "name": "owner",
          "type": "address"
        },
        {
          "indexed": true,
          "name": "approved",
          "type": "address"
        },
        {
          "indexed": false,
          "name": "tokenId",
          "type": "uint256"
        }
      ],
      "name": "Approval",
      "type": "event"
    },
    {
      "anonymous": false,
      "inputs": [
        {
          "indexed": false,
          "name": "tokenId",
          "type": "uint256"
        },
        {
          "indexed": false,
          "name": "name",
          "type": "string"
        },
        {
          "indexed": false,
          "name": "_address",
          "type": "address"
        }
      ],
      "name": "NewWorldHeritage",
      "type": "event"
    },
    {
      "anonymous": false,
      "inputs": [
        {
          "indexed": true,
          "name": "previousOwner",
          "type": "address"
        },
        {
          "indexed": true,
          "name": "newOwner",
          "type": "address"
        }
      ],
      "name": "OwnershipTransferred",
      "type": "event"
    }
  ],
  "bytecode": "0x606060405266038d7ea4c68000600a5566be78bd4c57d000600b556707d72165f25ed000600c55341561003157600080fd5b336000806101000a81548173ffffffffffffffffffffffffffffffffffffffff021916908373ffffffffffffffffffffffffffffffffffffffff16021790555033600160006101000a81548173ffffffffffffffffffffffffffffffffffffffff021916908373ffffffffffffffffffffffffffffffffffffffff16021790555033600260006101000a81548173ffffffffffffffffffffffffffffffffffffffff021916908373ffffffffffffffffffffffffffffffffffffffff1602179055506121f3806101026000396000f300606060405260043610610175576000357c0100000000000000000000000000000000000000000000000000000000900463ffffffff168063059d36971461017757806305e45546146101a857806306fdde03146101d9578063095ea7b3146102675780631051db34146102a957806318160ddd146102d657806323b872dd146102ff57806327d7874c146103605780632ba73c1514610399578063499831f2146103d25780635a688ffa146103e75780636352211e1461044a57806370a08231146104ad57806372f897a8146104fa578063820c59bb1461055d5780638462151c1461058a5780638da5cb5b1461061857806395d89b411461066d5780639d173085146106fb578063a3f4df7e146107b4578063a9059cbb14610842578063b2e6ceeb14610884578063b9186d7d146108a7578063e1b65d28146108de578063efef39a11461093b578063f2fde38b14610953578063f42b1ae01461098c578063f76f8d78146109a1578063f7c8993814610a2f575b005b341561018257600080fd5b61018a610b05565b604051808261ffff1661ffff16815260200191505060405180910390f35b34156101b357600080fd5b6101bb610b1d565b604051808261ffff1661ffff16815260200191505060405180910390f35b34156101e457600080fd5b6101ec610b31565b6040518080602001828103825283818151815260200191508051906020019080838360005b8381101561022c578082015181840152602081019050610211565b50505050905090810190601f1680156102595780820380516001836020036101000a031916815260200191505b509250505060405180910390f35b341561027257600080fd5b6102a7600480803573ffffffffffffffffffffffffffffffffffffffff16906020019091908035906020019091905050610b74565b005b34156102b457600080fd5b6102bc610c9e565b604051808215151515815260200191505060405180910390f35b34156102e157600080fd5b6102e9610ca7565b6040518082815260200191505060405180910390f35b341561030a57600080fd5b61035e600480803573ffffffffffffffffffffffffffffffffffffffff1690602001909190803573ffffffffffffffffffffffffffffffffffffffff16906020019091908035906020019091905050610cb4565b005b341561036b57600080fd5b610397600480803573ffffffffffffffffffffffffffffffffffffffff16906020019091905050610ddc565b005b34156103a457600080fd5b6103d0600480803573ffffffffffffffffffffffffffffffffffffffff16906020019091905050610eb8565b005b34156103dd57600080fd5b6103e5610f94565b005b34156103f257600080fd5b610408600480803590602001909190505061100d565b604051808273ffffffffffffffffffffffffffffffffffffffff1673ffffffffffffffffffffffffffffffffffffffff16815260200191505060405180910390f35b341561045557600080fd5b61046b6004808035906020019091905050611040565b604051808273ffffffffffffffffffffffffffffffffffffffff1673ffffffffffffffffffffffffffffffffffffffff16815260200191505060405180910390f35b34156104b857600080fd5b6104e4600480803573ffffffffffffffffffffffffffffffffffffffff1690602001909190505061107d565b6040518082815260200191505060405180910390f35b341561050557600080fd5b61051b60048080359060200190919050506110c6565b604051808273ffffffffffffffffffffffffffffffffffffffff1673ffffffffffffffffffffffffffffffffffffffff16815260200191505060405180910390f35b341561056857600080fd5b6105706110f9565b604051808215151515815260200191505060405180910390f35b341561059557600080fd5b6105c1600480803573ffffffffffffffffffffffffffffffffffffffff16906020019091905050611110565b6040518080602001828103825283818151815260200191508051906020019060200280838360005b838110156106045780820151818401526020810190506105e9565b505050509050019250505060405180910390f35b341561062357600080fd5b61062b611247565b604051808273ffffffffffffffffffffffffffffffffffffffff1673ffffffffffffffffffffffffffffffffffffffff16815260200191505060405180910390f35b341561067857600080fd5b61068061126c565b6040518080602001828103825283818151815260200191508051906020019080838360005b838110156106c05780820151818401526020810190506106a5565b50505050905090810190601f1680156106ed5780820380516001836020036101000a031916815260200191505b509250505060405180910390f35b341561070657600080fd5b61071c60048080359060200190919050506112af565b60405180806020018281038252838181546001816001161561010002031660029004815260200191508054600181600116156101000203166002900480156107a55780601f1061077a576101008083540402835291602001916107a5565b820191906000526020600020905b81548152906001019060200180831161078857829003601f168201915b50509250505060405180910390f35b34156107bf57600080fd5b6107c76112d8565b6040518080602001828103825283818151815260200191508051906020019080838360005b838110156108075780820151818401526020810190506107ec565b50505050905090810190601f1680156108345780820380516001836020036101000a031916815260200191505b509250505060405180910390f35b341561084d57600080fd5b610882600480803573ffffffffffffffffffffffffffffffffffffffff16906020019091908035906020019091905050611311565b005b341561088f57600080fd5b6108a5600480803590602001909190505061138f565b005b34156108b257600080fd5b6108c86004808035906020019091905050611418565b6040518082815260200191505060405180910390f35b34156108e957600080fd5b610939600480803590602001908201803590602001908080601f01602080910402602001604051908101604052809392919081815260200183838082843782019150505050505091905050611435565b005b61095160048080359060200190919050506114a2565b005b341561095e57600080fd5b61098a600480803573ffffffffffffffffffffffffffffffffffffffff16906020019091905050611877565b005b341561099757600080fd5b61099f6119cc565b005b34156109ac57600080fd5b6109b4611a45565b6040518080602001828103825283818151815260200191508051906020019080838360005b838110156109f45780820151818401526020810190506109d9565b50505050905090810190601f168015610a215780820380516001836020036101000a031916815260200191505b509250505060405180910390f35b3415610a3a57600080fd5b610a506004808035906020019091905050611a7e565b60405180806020018481526020018373ffffffffffffffffffffffffffffffffffffffff1673ffffffffffffffffffffffffffffffffffffffff168152602001828103825285818151815260200191508051906020019080838360005b83811015610ac8578082015181840152602081019050610aad565b50505050905090810190601f168015610af55780820380516001836020036101000a031916815260200191505b5094505050505060405180910390f35b6000600960009054906101000a900461ffff16905090565b600960009054906101000a900461ffff1681565b610b39612029565b6040805190810160405280601381526020017f43727970746f576f726c64486572697461676500000000000000000000000000815250905090565b806005600082815260200190815260200160002060009054906101000a900473ffffffffffffffffffffffffffffffffffffffff1673ffffffffffffffffffffffffffffffffffffffff163373ffffffffffffffffffffffffffffffffffffffff16141515610be257600080fd5b826008600084815260200190815260200160002060006101000a81548173ffffffffffffffffffffffffffffffffffffffff021916908373ffffffffffffffffffffffffffffffffffffffff1602179055508273ffffffffffffffffffffffffffffffffffffffff163373ffffffffffffffffffffffffffffffffffffffff167f8c5be1e5ebec7d5bd14f71427d1e84f3dd0314c0f7b2291e5b200ac8c7c3b925846040518082815260200191505060405180910390a3505050565b60006001905090565b6000600480549050905090565b806005600082815260200190815260200160002060009054906101000a900473ffffffffffffffffffffffffffffffffffffffff1673ffffffffffffffffffffffffffffffffffffffff163373ffffffffffffffffffffffffffffffffffffffff16141515610d2257600080fd5b8273ffffffffffffffffffffffffffffffffffffffff166008600084815260200190815260200160002060009054906101000a900473ffffffffffffffffffffffffffffffffffffffff1673ffffffffffffffffffffffffffffffffffffffff16141515610d8f57600080fd5b600073ffffffffffffffffffffffffffffffffffffffff168373ffffffffffffffffffffffffffffffffffffffff1614151515610dcb57600080fd5b610dd6848484611b9a565b50505050565b600160009054906101000a900473ffffffffffffffffffffffffffffffffffffffff1673ffffffffffffffffffffffffffffffffffffffff163373ffffffffffffffffffffffffffffffffffffffff16141515610e3857600080fd5b600073ffffffffffffffffffffffffffffffffffffffff168173ffffffffffffffffffffffffffffffffffffffff1614151515610e7457600080fd5b80600160006101000a81548173ffffffffffffffffffffffffffffffffffffffff021916908373ffffffffffffffffffffffffffffffffffffffff16021790555050565b600160009054906101000a900473ffffffffffffffffffffffffffffffffffffffff1673ffffffffffffffffffffffffffffffffffffffff163373ffffffffffffffffffffffffffffffffffffffff16141515610f1457600080fd5b600073ffffffffffffffffffffffffffffffffffffffff168173ffffffffffffffffffffffffffffffffffffffff1614151515610f5057600080fd5b80600260006101000a81548173ffffffffffffffffffffffffffffffffffffffff021916908373ffffffffffffffffffffffffffffffffffffffff16021790555050565b600160009054906101000a900473ffffffffffffffffffffffffffffffffffffffff1673ffffffffffffffffffffffffffffffffffffffff163373ffffffffffffffffffffffffffffffffffffffff16141515610ff057600080fd5b6001600260146101000a81548160ff021916908315150217905550565b60086020528060005260406000206000915054906101000a900473ffffffffffffffffffffffffffffffffffffffff1681565b60006005600083815260200190815260200160002060009054906101000a900473ffffffffffffffffffffffffffffffffffffffff169050919050565b6000600660008373ffffffffffffffffffffffffffffffffffffffff1673ffffffffffffffffffffffffffffffffffffffff168152602001908152602001600020549050919050565b60056020528060005260406000206000915054906101000a900473ffffffffffffffffffffffffffffffffffffffff1681565b6000600260149054906101000a900460ff16905090565b61111861203d565b600061112261203d565b60008060006111308761107d565b9450600085141561116257600060405180591061114a5750595b9080825280602002602001820160405250955061123d565b846040518059106111705750595b9080825280602002602001820160405250935061118b610ca7565b925060009150600090505b8281111515611239578673ffffffffffffffffffffffffffffffffffffffff166005600083815260200190815260200160002060009054906101000a900473ffffffffffffffffffffffffffffffffffffffff1673ffffffffffffffffffffffffffffffffffffffff16141561122c5780848381518110151561121557fe5b906020019060200201818152505081806001019250505b8080600101915050611196565b8395505b5050505050919050565b6000809054906101000a900473ffffffffffffffffffffffffffffffffffffffff1681565b611274612029565b6040805190810160405280601281526020017f576f726c644865726974616765546f6b656e0000000000000000000000000000815250905090565b6004818154811015156112be57fe5b906000526020600020900160009150905080600001905081565b6040805190810160405280601381526020017f43727970746f576f726c6448657269746167650000000000000000000000000081525081565b806005600082815260200190815260200160002060009054906101000a900473ffffffffffffffffffffffffffffffffffffffff1673ffffffffffffffffffffffffffffffffffffffff163373ffffffffffffffffffffffffffffffffffffffff1614151561137f57600080fd5b61138a338484611b9a565b505050565b60003373ffffffffffffffffffffffffffffffffffffffff166008600084815260200190815260200160002060009054906101000a900473ffffffffffffffffffffffffffffffffffffffff1673ffffffffffffffffffffffffffffffffffffffff161415156113fe57600080fd5b61140782611040565b9050611414813384611b9a565b5050565b600060076000838152602001908152602001600020549050919050565b600260009054906101000a900473ffffffffffffffffffffffffffffffffffffffff1673ffffffffffffffffffffffffffffffffffffffff163373ffffffffffffffffffffffffffffffffffffffff1614151561149157600080fd5b61149e8130600a54611e17565b5050565b60008060008060006005600087815260200190815260200160002060009054906101000a900473ffffffffffffffffffffffffffffffffffffffff169450339350600760008781526020019081526020016000205492508373ffffffffffffffffffffffffffffffffffffffff168573ffffffffffffffffffffffffffffffffffffffff161415151561153457600080fd5b600073ffffffffffffffffffffffffffffffffffffffff168473ffffffffffffffffffffffffffffffffffffffff161415151561157057600080fd5b82341015151561157f57600080fd5b61159461158d84605d611f9c565b6064611fd7565b91506115a03484611ff2565b9050600b548310156115dd576115c16115ba8460c8611f9c565b605d611fd7565b6007600088815260200190815260200160002081905550611646565b600c54831015611618576115fc6115f5846078611f9c565b605d611fd7565b6007600088815260200190815260200160002081905550611645565b61162d611626846073611f9c565b605d611fd7565b60076000888152602001908152602001600020819055505b5b611651858588611b9a565b3073ffffffffffffffffffffffffffffffffffffffff168573ffffffffffffffffffffffffffffffffffffffff161415156116c7578473ffffffffffffffffffffffffffffffffffffffff166108fc839081150290604051600060405180830381858888f1935050505015156116c657600080fd5b5b7ff07d3df5908b302cf0b0ebe60c3dbcf86bd6734e1a94e81cc9751c509ba5c38e8684600760008a815260200190815260200160002054888860048c81548110151561170f57fe5b9060005260206000209001600001604051808781526020018681526020018581526020018473ffffffffffffffffffffffffffffffffffffffff1673ffffffffffffffffffffffffffffffffffffffff1681526020018373ffffffffffffffffffffffffffffffffffffffff1673ffffffffffffffffffffffffffffffffffffffff1681526020018060200182810382528381815460018160011615610100020316600290048152602001915080546001816001161561010002031660029004801561181c5780601f106117f15761010080835404028352916020019161181c565b820191906000526020600020905b8154815290600101906020018083116117ff57829003601f168201915b505097505050505050505060405180910390a13373ffffffffffffffffffffffffffffffffffffffff166108fc829081150290604051600060405180830381858888f19350505050151561186f57600080fd5b505050505050565b6000809054906101000a900473ffffffffffffffffffffffffffffffffffffffff1673ffffffffffffffffffffffffffffffffffffffff163373ffffffffffffffffffffffffffffffffffffffff161415156118d257600080fd5b600073ffffffffffffffffffffffffffffffffffffffff168173ffffffffffffffffffffffffffffffffffffffff161415151561190e57600080fd5b8073ffffffffffffffffffffffffffffffffffffffff166000809054906101000a900473ffffffffffffffffffffffffffffffffffffffff1673ffffffffffffffffffffffffffffffffffffffff167f8be0079c531659141344cd1fd0a4f28419497f9722a3daafe3b4186f6b6457e060405160405180910390a3806000806101000a81548173ffffffffffffffffffffffffffffffffffffffff021916908373ffffffffffffffffffffffffffffffffffffffff16021790555050565b600160009054906101000a900473ffffffffffffffffffffffffffffffffffffffff1673ffffffffffffffffffffffffffffffffffffffff163373ffffffffffffffffffffffffffffffffffffffff16141515611a2857600080fd5b6000600260146101000a81548160ff021916908315150217905550565b6040805190810160405280601281526020017f576f726c644865726974616765546f6b656e000000000000000000000000000081525081565b611a86612029565b6000806000600485815481101515611a9a57fe5b90600052602060002090019050806000018054600181600116156101000203166002900480601f016020809104026020016040519081016040528092919081815260200182805460018160011615610100020316600290048015611b3f5780601f10611b1457610100808354040283529160200191611b3f565b820191906000526020600020905b815481529060010190602001808311611b2257829003601f168201915b50505050509350600760008681526020019081526020016000205492506005600086815260200190815260200160002060009054906101000a900473ffffffffffffffffffffffffffffffffffffffff169150509193909250565b611be4600660008473ffffffffffffffffffffffffffffffffffffffff1673ffffffffffffffffffffffffffffffffffffffff16815260200190815260200160002054600161200b565b600660008473ffffffffffffffffffffffffffffffffffffffff1673ffffffffffffffffffffffffffffffffffffffff16815260200190815260200160002081905550816005600083815260200190815260200160002060006101000a81548173ffffffffffffffffffffffffffffffffffffffff021916908373ffffffffffffffffffffffffffffffffffffffff160217905550600073ffffffffffffffffffffffffffffffffffffffff168373ffffffffffffffffffffffffffffffffffffffff16141515611d7357611cf9600660008573ffffffffffffffffffffffffffffffffffffffff1673ffffffffffffffffffffffffffffffffffffffff168152602001908152602001600020546001611ff2565b600660008573ffffffffffffffffffffffffffffffffffffffff1673ffffffffffffffffffffffffffffffffffffffff168152602001908152602001600020819055506008600082815260200190815260200160002060006101000a81549073ffffffffffffffffffffffffffffffffffffffff02191690555b7fddf252ad1be2c89b69c2b068fc378daa952ba7f163c4a11628f55a4df523b3ef838383604051808473ffffffffffffffffffffffffffffffffffffffff1673ffffffffffffffffffffffffffffffffffffffff1681526020018373ffffffffffffffffffffffffffffffffffffffff1673ffffffffffffffffffffffffffffffffffffffff168152602001828152602001935050505060405180910390a1505050565b6000611e21612051565b6000602060405190810160405280878152509150600160048054806001018281611e4b919061206b565b916000526020600020900160008590919091506000820151816000019080519060200190611e7a929190612097565b5050500390508063ffffffff1681141515611e9457600080fd5b7f89de759f2a88377b85770aafcfcb342946f5991f6d9e00db51940fc35f8a458a81878760405180848152602001806020018373ffffffffffffffffffffffffffffffffffffffff1673ffffffffffffffffffffffffffffffffffffffff168152602001828103825284818151815260200191508051906020019080838360005b83811015611f30578082015181840152602081019050611f15565b50505050905090810190601f168015611f5d5780820380516001836020036101000a031916815260200191505b5094505050505060405180910390a1836007600083815260200190815260200160002081905550611f9060008683611b9a565b80925050509392505050565b6000806000841415611fb15760009150611fd0565b8284029050828482811515611fc257fe5b04141515611fcc57fe5b8091505b5092915050565b6000808284811515611fe557fe5b0490508091505092915050565b600082821115151561200057fe5b818303905092915050565b600080828401905083811015151561201f57fe5b8091505092915050565b602060405190810160405280600081525090565b602060405190810160405280600081525090565b602060405190810160405280612065612117565b81525090565b81548183558181151161209257818360005260206000209182019101612091919061212b565b5b505050565b828054600181600116156101000203166002900490600052602060002090601f016020900481019282601f106120d857805160ff1916838001178555612106565b82800160010185558215612106579182015b828111156121055782518255916020019190600101906120ea565b5b509050612113919061215a565b5090565b602060405190810160405280600081525090565b61215791905b80821115612153576000808201600061214a919061217f565b50600101612131565b5090565b90565b61217c91905b80821115612178576000816000905550600101612160565b5090565b90565b50805460018160011615610100020316600290046000825580601f106121a557506121c4565b601f0160209004906000526020600020908101906121c3919061215a565b5b505600a165627a7a7230582009b9caa75e9329d5c3b20723cb1fb30c5e06546e1e77f174a040e812bd0d65350029",
  "source": "pragma solidity ^0.4.18;\n/**\n * @title Ownable\n * @dev The Ownable contract has an owner address, and provides basic authorization control\n * functions, this simplifies the implementation of \"user permissions\".\n */\ncontract Ownable {\n  address public owner;\n\n  event OwnershipTransferred(address indexed previousOwner, address indexed newOwner);\n\n  /**\n   * @dev The Ownable constructor sets the original `owner` of the contract to the sender\n   * account.\n   */\n  function Ownable() public {\n    owner = msg.sender;\n  }\n\n  /**\n   * @dev Throws if called by any account other than the owner.\n   */\n  modifier onlyOwner() {\n    require(msg.sender == owner);\n    _;\n  }\n\n  /**\n   * @dev Allows the current owner to transfer control of the contract to a newOwner.\n   * @param newOwner The address to transfer ownership to.\n   */\n  function transferOwnership(address newOwner) public onlyOwner {\n    require(newOwner != address(0));\n    OwnershipTransferred(owner, newOwner);\n    owner = newOwner;\n  }\n\n}\n// @title Interface for contracts conforming to ERC-721: Non-Fungible Tokens\n/// @author Dieter Shirley <dete@axiomzen.co> (https://github.com/dete)\ncontract ERC721 {\n  // Required methods\n  function approve(address _to, uint256 _tokenId) public;\n  function balanceOf(address _owner) public view returns (uint256 balance);\n  function implementsERC721() public pure returns (bool);\n  function ownerOf(uint256 _tokenId) public view returns (address addr);\n  function takeOwnership(uint256 _tokenId) public;\n  function totalSupply() public view returns (uint256 total);\n  function transferFrom(address _from, address _to, uint256 _tokenId) public;\n  function transfer(address _to, uint256 _tokenId) public;\n\n  event Transfer(address indexed from, address indexed to, uint256 tokenId);\n  event Approval(address indexed owner, address indexed approved, uint256 tokenId);\n\n  // Optional\n   function name() public view returns (string name);\n   function symbol() public view returns (string symbol);\n  // function tokenOfOwnerByIndex(address _owner, uint256 _index) external view returns (uint256 tokenId);\n  // function tokenMetadata(uint256 _tokenId) public view returns (string infoUrl);\n}\n\n/**\n * @title SafeMath\n * @dev Math operations with safety checks that throw on error\n */\nlibrary SafeMath {\n\n  /**\n  * @dev Multiplies two numbers, throws on overflow.\n  */\n  function mul(uint256 a, uint256 b) internal pure returns (uint256) {\n    if (a == 0) {\n      return 0;\n    }\n    uint256 c = a * b;\n    assert(c / a == b);\n    return c;\n  }\n\n  /**\n  * @dev Integer division of two numbers, truncating the quotient.\n  */\n  function div(uint256 a, uint256 b) internal pure returns (uint256) {\n    // assert(b > 0); // Solidity automatically throws when dividing by 0\n    uint256 c = a / b;\n    // assert(a == b * c + a % b); // There is no case in which this doesn't hold\n    return c;\n  }\n\n  /**\n  * @dev Substracts two numbers, throws on overflow (i.e. if subtrahend is greater than minuend).\n  */\n  function sub(uint256 a, uint256 b) internal pure returns (uint256) {\n    assert(b <= a);\n    return a - b;\n  }\n\n  /**\n  * @dev Adds two numbers, throws on overflow.\n  */\n  function add(uint256 a, uint256 b) internal pure returns (uint256) {\n    uint256 c = a + b;\n    assert(c >= a);\n    return c;\n  }\n}\n\n/**\n * @title SafeMath32\n * @dev SafeMath library implemented for uint32\n */\nlibrary SafeMath32 {\n\n  function mul(uint32 a, uint32 b) internal pure returns (uint32) {\n    if (a == 0) {\n      return 0;\n    }\n    uint32 c = a * b;\n    assert(c / a == b);\n    return c;\n  }\n\n  function div(uint32 a, uint32 b) internal pure returns (uint32) {\n    // assert(b > 0); // Solidity automatically throws when dividing by 0\n    uint32 c = a / b;\n    // assert(a == b * c + a % b); // There is no case in which this doesn't hold\n    return c;\n  }\n\n  function sub(uint32 a, uint32 b) internal pure returns (uint32) {\n    assert(b <= a);\n    return a - b;\n  }\n\n  function add(uint32 a, uint32 b) internal pure returns (uint32) {\n    uint32 c = a + b;\n    assert(c >= a);\n    return c;\n  }\n}\n\n/**\n * @title SafeMath16\n * @dev SafeMath library implemented for uint16\n */\nlibrary SafeMath16 {\n\n  function mul(uint16 a, uint16 b) internal pure returns (uint16) {\n    if (a == 0) {\n      return 0;\n    }\n    uint16 c = a * b;\n    assert(c / a == b);\n    return c;\n  }\n\n  function div(uint16 a, uint16 b) internal pure returns (uint16) {\n    // assert(b > 0); // Solidity automatically throws when dividing by 0\n    uint16 c = a / b;\n    // assert(a == b * c + a % b); // There is no case in which this doesn't hold\n    return c;\n  }\n\n  function sub(uint16 a, uint16 b) internal pure returns (uint16) {\n    assert(b <= a);\n    return a - b;\n  }\n\n  function add(uint16 a, uint16 b) internal pure returns (uint16) {\n    uint16 c = a + b;\n    assert(c >= a);\n    return c;\n  }\n}\ncontract WorldHeritageAccessControl is Ownable {\n\n    address ceoAddress;\n    address cooAddress;\n\n    function WorldHeritageAccessControl() {\n        // constructor\n    }\n\n      /*** ACCESS MODIFIERS ***/\n  /// @dev Access modifier for CEO-only functionality\n  modifier onlyCEO() {\n    require(msg.sender == ceoAddress);\n    _;\n  }\n\n  /// @dev Access modifier for COO-only functionality\n  modifier onlyCOO() {\n    require(msg.sender == cooAddress);\n    _;\n  }\n\n  /// Access modifier for contract owner only functionality\n  modifier onlyCLevel() {\n    require(\n      msg.sender == ceoAddress ||\n      msg.sender == cooAddress\n    );\n    _;\n  }\n\n    bool isPaused;\n    \n    /*\n    We use the following functions to pause and unpause the game.\n    */\n    function pauseGame() public onlyCEO {\n        isPaused = true;\n    }\n    function unPauseGame() public onlyCEO {\n        isPaused = false;\n    }\n    function GetIsPauded() public view returns(bool) {\n       return(isPaused);\n    }\n\n      /// @dev Assigns a new address to act as the CEO. Only available to the current CEO.\n  /// @param _newCEO The address of the new CEO\n  function setCEO(address _newCEO) public onlyCEO {\n    require(_newCEO != address(0));\n\n    ceoAddress = _newCEO;\n  }\n\n  /// @dev Assigns a new address to act as the COO. Only available to the current COO.\n  /// @param _newCOO The address of the new COO\n  function setCOO(address _newCOO) public onlyCEO {\n    require(_newCOO != address(0));\n\n    cooAddress = _newCOO;\n  }\n}\n\ncontract WorldHeritageBase is WorldHeritageAccessControl {\n    using SafeMath for SafeMath;\n\n    uint promoCreatedCount;\n    /// @dev The NewWorldHeritage event is fired whenever a new worldheritage comes into existence.\n    event NewWorldHeritage(uint tokenId,string name, address _address);\n\n    /// @dev Transfer event as defined in current draft of ERC721. \n    ///  ownership is assigned.\n    event Transfer(address from, address to, uint256 tokenId);\n\n    function WorldHeritageBase() {\n        // constructor  \n    }\n\n    //define structs\n    struct WorldHeritage {\n        string name;\n    }\n    //dynamic Array\n    WorldHeritage[] public worldheritages;  \n\n    /**mapping**/\n    mapping (uint256 => address) public IndexToOwner;\n    mapping (address => uint256) ownershipTokenCount;\n    mapping (uint256 => uint256) IndexToPrice;\n    mapping (uint256 => address) public IndexToApproved;\n\n     /// Check for token ownership\n  modifier onlyOwnerOf(uint _tokenId) {\n    require(msg.sender == IndexToOwner[_tokenId]);\n    _;\n  }\n\n    /// For creating promos\n    function _createPromos(string _name, address _owner, uint256 _price) internal returns(uint) {\n\n    WorldHeritage memory _worldheritage = WorldHeritage({\n      name: _name\n    });\n    uint256 newTokenId = worldheritages.push(_worldheritage) - 1;\n\n    // It's probably never going to happen, 4 billion tokens are A LOT, but\n    // let's just be 100% sure we never let this happen.\n    require(newTokenId == uint256(uint32(newTokenId)));\n    //event\n    NewWorldHeritage(newTokenId, _name, _owner);\n\n    IndexToPrice[newTokenId] = _price;\n\n    // This will assign ownership, and also emit the Transfer event as\n    // per ERC721 draft\n    _transfer(address(0), _owner, newTokenId);\n    return newTokenId;\n  }\n\n  /// @dev Assigns ownership of a specific worldheritage to an address.\n  function _transfer(address _from, address _to, uint256 _tokenId) internal {\n    // Since the number of persons is capped to 2^32 we can't overflow this\n    ownershipTokenCount[_to] = SafeMath.add(ownershipTokenCount[_to],1);\n    //transfer ownership\n    IndexToOwner[_tokenId] = _to;\n\n    // When creating new worldheritage _from is 0x0, but we can't account that address.\n    if (_from != address(0)) {\n      ownershipTokenCount[_from] = SafeMath.sub(ownershipTokenCount[_from],1);\n      // clear any previously approved ownership exchange\n      delete IndexToApproved[_tokenId];\n    }\n    // Emit the transfer event.\n    Transfer(_from, _to, _tokenId);\n  }\n}\n\n/// @title ERC721 \n/// @author rainysiu\n/// @dev the worldheritageownership \ncontract WorldHeritageOwnership is WorldHeritageBase, ERC721 {\n\n //using SafeMath for uint256;\n /*** CONSTANTS ***/\n  /// @notice Name and symbol of the non fungible token, as defined in ERC721.\n  string public constant NAME = \"CryptoWorldHeritage\"; // solhint-disable-line\n  string public constant SYMBOL = \"WorldHeritageToken\"; // solhint-disable-line\n\n  //mapping (uint => address) zombieApprovals;\n\n  function balanceOf(address _owner) public view returns (uint256 _balance) {\n    return ownershipTokenCount[_owner];\n  }\n\n  function ownerOf(uint256 _tokenId) public view returns (address _owner) {\n    return IndexToOwner[_tokenId];\n  }\n\n  function transfer(address _to, uint256 _tokenId) public onlyOwnerOf(_tokenId) {\n    _transfer(msg.sender, _to, _tokenId);\n  }\n\n    /// Third-party initiates transfer of token from address _from to address _to\n  /// @param _from The address for the token to be transferred from.\n  /// @param _to The address for the token to be transferred to.\n  /// @param _tokenId The ID of the Token that can be transferred if this call succeeds.\n  /// @dev Required for ERC-721 compliance.\n  /*function transferFrom(address _from, address _to, uint256 _tokenId) public onlyOwnerOf(_tokenId) onlyApproved(_to, _tokenId) addressNotNull(_to) {\n    _transfer(_from, _to, _tokenId);\n  }*/\n\n  function transferFrom(address _from, address _to, uint256 _tokenId) public onlyOwnerOf(_tokenId) {\n    //require(_owns(_from, _tokenId));\n    //require(_approved(_to, _tokenId));\n    require(IndexToApproved[_tokenId] == _to);\n    require(_to != address(0));\n\n    _transfer(_from, _to, _tokenId);\n  }\n\n\n  function approve(address _to, uint256 _tokenId) public onlyOwnerOf(_tokenId) {\n    IndexToApproved[_tokenId] = _to;\n    Approval(msg.sender, _to, _tokenId);\n  }\n\n  function takeOwnership(uint256 _tokenId) public {\n    require(IndexToApproved[_tokenId] == msg.sender);\n    address owner = ownerOf(_tokenId);\n    _transfer(owner, msg.sender, _tokenId);\n  }\n\n  function name() public view returns (string _name) {\n    return NAME;\n  }\n\n  function symbol() public view returns (string _symbol) {\n    return SYMBOL;\n  }\n\n   function implementsERC721() public pure returns (bool) {\n    return true;\n  }\n    /// For querying totalSupply of token\n  /// @dev Required for ERC-721 compliance.\n  function totalSupply() public view returns (uint256 total) {\n    return worldheritages.length;\n  }\n\n}\n\ncontract WorldHeritageCore is WorldHeritageOwnership {\n  using SafeMath16 for SafeMath16;\n    /// @dev The TokenSold event is fired whenever a token is sold.\n  event BuyToken(uint256 tokenId, uint256 oldPrice, uint256 newPrice, address prevOwner, address winner, string name);\n\n  /*** CONSTANTS ***/\n  uint256 private constant PROMO_CREATION_LIMIT = 1073;\n  uint16 public promoCreatedCount;\n\n  uint256 private startingPrice = 0.001 ether;\n  uint256 private firstStepLimit =  0.053613 ether;\n  uint256 private secondStepLimit = 0.564957 ether;\n\n\n  /*** CONSTRUCTOR ***/\n  function WorldHeritageCore() public {\n    ceoAddress = msg.sender;\n    cooAddress = msg.sender;\n  }\n\n      /// @notice No tipping!\n    /// @dev Reject all Ether from being sent here, unless it's from one of the\n    ///  two auction contracts. (Hopefully, we can prevent user accidents.)\n    function() external payable {\n    }\n\n  /// @dev Creates a new promo worldheritage with the given name, with given _price and assignes it to an address.\n    function createPromos(string _name, address _address, uint _price) internal onlyCOO returns (uint256) {\n        require(promoCreatedCount < PROMO_CREATION_LIMIT); //\n        if (_address == address(0)) {\n            _address = cooAddress;\n        }\n        if (_price <= 0) {\n            _price = startingPrice;\n        }\n        promoCreatedCount = SafeMath16.add(promoCreatedCount,1);\n        _createPromos(_name, _address, _price);\n        return promoCreatedCount;\n    }\n\n\n  /// @notice Returns all the relevant information about a specific tokenId.\n  /// @param _tokenId The tokenId of the worldheritage.\n  function getWorldHeritage(uint256 _tokenId) public view returns (\n    string tokenName,\n    uint256 sellingPrice,\n    address owner\n  ) {\n    WorldHeritage storage worldheritage = worldheritages[_tokenId];\n    tokenName = worldheritage.name;\n    sellingPrice = IndexToPrice[_tokenId];\n    owner = IndexToOwner[_tokenId];\n  }\n\n  function getWorldHeritageCount() public view returns(uint16) {\n      return promoCreatedCount;\n  }\n\n\n  // Allows someone to send ether and obtain the token\n  function purchase(uint256 _tokenId) external payable {\n    address oldOwner = IndexToOwner[_tokenId];\n    address newOwner = msg.sender;\n\n    uint256 sellingPrice = IndexToPrice[_tokenId];\n\n    // Making sure token owner is not sending to self\n    require(oldOwner != newOwner);\n\n    // Safety check to prevent against an unexpected 0x0 default.\n    require(newOwner != address(0));\n\n    // Making sure sent amount is greater than or equal to the sellingPrice\n    require(msg.value >= sellingPrice);\n\n    uint256 payment = uint256(SafeMath.div(SafeMath.mul(sellingPrice, 93), 100)); //\n    uint256 purchaseExcess = SafeMath.sub(msg.value, sellingPrice); //\n\n    // Update prices\n    if (sellingPrice < firstStepLimit) {\n      // first stage\n      IndexToPrice[_tokenId] = SafeMath.div(SafeMath.mul(sellingPrice, 200), 93);\n    } else if (sellingPrice < secondStepLimit) {\n      // second stage\n      IndexToPrice[_tokenId] = SafeMath.div(SafeMath.mul(sellingPrice, 120), 93);\n    } else {\n      // third stage\n      IndexToPrice[_tokenId] = SafeMath.div(SafeMath.mul(sellingPrice, 115), 93);\n    }\n\n    _transfer(oldOwner, newOwner, _tokenId);\n\n    // Pay previous tokenOwner if owner is not contract\n    if (oldOwner != address(this)) {\n      oldOwner.transfer(payment); //(1-0.07)\n    }\n    //event \n    BuyToken(_tokenId, sellingPrice, IndexToPrice[_tokenId], oldOwner, newOwner, worldheritages[_tokenId].name);\n\n    msg.sender.transfer(purchaseExcess);\n  }\n\n\n   /// @dev Creates a new Worldheritage with the given name.\n  function createWorldHeritage(string _name) public onlyCOO {\n    _createPromos(_name, address(this), startingPrice);\n  }\n\n  function priceOf(uint256 _tokenId) public view returns (uint256 price) {\n    return IndexToPrice[_tokenId];\n  }\n\n  /// @param _owner The owner whose celebrity tokens we are interested in.\n  /// @dev This method MUST NEVER be called by smart contract code. First, it's fairly\n  ///  expensive (it walks the entire Persons array looking for persons belonging to owner),\n  ///  but it also returns a dynamic array, which is only supported for web3 calls, and\n  ///  not contract-to-contract calls.\n  function tokensOfOwner(address _owner) public view returns(uint256[] ownerTokens) {\n    uint256 tokenCount = balanceOf(_owner);\n    if (tokenCount == 0) {\n        // Return an empty array\n      return new uint256[](0);\n    } else {\n      uint256[] memory result = new uint256[](tokenCount);\n      uint256 totalWorldHeritages = totalSupply();\n      uint256 resultIndex = 0;\n\n      uint256 tokenId;\n      for (tokenId = 0; tokenId <= totalWorldHeritages; tokenId++) {\n        if (IndexToOwner[tokenId] == _owner) {\n          result[resultIndex] = tokenId;\n          resultIndex++;\n        }\n      }\n      return result;\n    }\n  }\n}\n",
  "sourcePath": "/Users/rainysiu/BCProj/WorldHeritage/contracts/worldheritageToken.sol",
  "compiler": {
    "name": "solc",
    "version": "0.4.18+commit.9cf6e910.Emscripten.clang"
  },
  "schemaVersion": "1.0.1",
  "updatedAt": "2018-03-15T12:26:33.897Z"
}